:020000040800F2
:10000000081600205902000817170008CD1500082F
:1000100015170008C50200089D1A0008000000001E
:100020000000000000000000000000009D0100082A
:10003000C702000800000000F10100088517000851
:1000400073020008730200087302000873020008BC
:1000500073020008730200087302000873020008AC
:10006000730200087302000873020008730200089C
:10007000730200087302000873020008730200088C
:10008000730200087302000873020008730200087C
:10009000730200087302000873020008730200086C
:1000A000730200087302000873020008730200085C
:1000B0007918000873020008730200087302000830
:1000C000730200087302000873020008730200083C
:1000D000730200087302000873020008730200082C
:1000E000730200087302000873020008730200081C
:1000F000730200087302000873020008730200080C
:100100000000000000000000000000007302000872
:1001100073020008730200087302000873020008EB
:1001200073020008730200087302000873020008DB
:1001300073020008730200080000000000000000C5
:100140007302000873020008730200080000000038
:10015000000000000000000000000000000000009F
:100160000000000000000000730200087302000895
:100170007302000800000000000000000000000002
:100180000000000073020008DFF80CD000F088F8CF
:1001900000480047BD1A0008081600202B4B1968BC
:1001A0000868B0E8F04F80F30988BFF36F8F4FF015
:1001B000000080F3118870470000000006480068C6
:1001C000006880F3088862B661B6BFF34F8FBFF353
:1001D0006F8F00DF00BF00BF08ED00E0DFF80C000C
:1001E000016841F470010160704700BF88ED00E0D4
:1001F000EFF30980BFF36F8F144B1A681EF0100FD6
:1002000008BF20ED108A20E9F04F106008B44FF0CD
:10021000500080F31188BFF34F8FBFF36F8F02F050
:1002200055F94FF0000080F3118808BC1968086880
:10023000B0E8F04F1EF0100F08BFB0EC108A80F34A
:100240000988BFF36F8F704700BF00BF44000020D4
:10025000EFF30580704700000648804706480047D6
:10026000FEE7FEE7FEE7FEE7FEE7FEE7FEE7FEE766
:10027000FEE7FEE7111800088901000840EA0103C3
:100280009B0703D009E008C9121F08C0042AFAD24C
:1002900003E011F8013B00F8013B521EF9D2704710
:1002A000064C074D06E0E06840F0010394E80700C3
:1002B00098471034AC42F6D3FFF76AFFAC2D000824
:1002C000CC2D0008FEE770472DE9F84FDFF86C9160
:1002D000002209F1040A0AF1040B4FF00F080BF198
:1002E000040EA3E001269640334070D04C68022CE7
:1002F00001D0122C11D1D40800EB84073D6A5407B9
:10030000E40E08FA04FC25EA0C05D1F810C00CFA3A
:1003100004FC4CEA050CC7F820C00768540003250C
:1003200091F804C0A5400CF0030CAF430CFA04FC98
:100330004CEA070CC0F800C04F68012F05D0022F0F
:1003400003D0112F01D0122F11D18768D1F80CC022
:10035000AF430CFA04FC4CEA070CC0F808C047682D
:10036000B7430E79C6F3001696403E434660C66812
:10037000AE438D68A5403543C5604C68E40054D554
:100380002F4CA56945F00105A561A46922F003057C
:1003900004F0010400942B4C2E19B7689407250F24
:1003A00008FA05F4A743B0F1904F04D0264CA042C0
:1003B00003D1012412E0002410E0244CA04201D11A
:1003C00002240BE0224CA04202D1032406E02CE0E0
:1003D000204CA04201D1042400E00524AC403C4361
:1003E000B460D9F800404D464E689C43F60300D5F2
:1003F0001C432C60DAF8004055464E689C43B60317
:1004000000D51C432C60DBF800405D464E689C43E1
:10041000F60200D51C432C60DEF8004075464E689D
:100420009C43B60200D51C432C60521C0B6833FA67
:1004300002F47FF457AFBDE8F88F000000040140DC
:10044000001002400000014000040048000800487D
:10045000000C0048001000480AB1816170478162B9
:1004600070470000014880687047000010000020BD
:1004700090F84120202A24D190F84020012A20D051
:10048000012280F84020242280F84120026813686D
:1004900023F0010313600268136823F48053136090
:1004A000026813680B43136001680A6842F0010296
:1004B0000A60202180F84110002180F84010084691
:1004C00070470220704790F84120202A22D190F8EE
:1004D0004020012A1ED0012280F84020242280F8EA
:1004E00041200268136823F0010313600268136857
:1004F00023F4706343EA0121116001680A6842F045
:1005000001020A60202180F84110002180F840108B
:10051000084670470220704770B5040004D094F874
:100520004100002510B106E0012070BD84F8405064
:10053000204600F04DF8242084F84100206801682E
:1005400021F0010101606068216820F0706008619D
:100550002068816821F400418160E0680128A0687A
:1005600007D040F4044021688860E068022803D086
:1005700006E040F40040F6E721684FF40060486070
:1005800020684168114A114341602068C16821F424
:100590000041C160D4E904010843A16940EA012097
:1005A0002168C860D4E90701084321680860206811
:1005B000016841F0010101606564202084F8410078
:1005C000256384F84250002070BD000000800002C6
:1005D00000B500680E4987B0884216D1C02000904F
:1005E0001220019001200290032003900420049027
:1005F00069460848FFF768FE0748C16941F40011E1
:10060000C161C06900F40010059007B000BD000092
:100610000054004000040048001002400248816875
:10062000027811448160704710000020074810B51F
:10063000016841F010010160032000F0AFF80020D4
:1006400000F006F800F03EF8002010BD0020024047
:1006500000B5014687B000221C2000F07FF81C2066
:1006600000F070F81448C16941F00101C161C0692E
:1006700005A900F001000690684600F0CDFA00F0F0
:10068000F1FA0E494000B0FBF1F10D484FF0804205
:10069000491E0260416040F2E7320021C0E90321B7
:1006A000816000F09EFE10B1012007B000BD04483B
:1006B00000F0B3FEF9E700000010024040420F00D6
:1006C000D80400201E4808B5816941F0010181610C
:1006D000816901F001010091C16941F08051C1615E
:1006E000C06900F080500090032000F057F800220D
:1006F00011466FF00B0000F031F8002211466FF048
:100700000A0000F02BF8002211466FF0090000F0FB
:1007100025F800221146501F00F020F80022114653
:10072000101F00F01BF800220F21901E00F016F899
:1007300000220F21BDE80840501E00F00FB8000055
:100740000010024000F01F0201219140400980008A
:1007500000F1E020C0F8001170470000F0B40E4B2B
:100760001B68C3F30223C3F10704042C00D904243B
:100770001D1D072D01D2002300E0DB1E012606FA15
:1007800004F56D1E0D409D409E40761E164045EAC4
:100790000601F0BC00F0C0BF0CED00E0064A00F01E
:1007A000070110684FF6FF03184040EA0120034993
:1007B00008431060704700000CED00E00000FA05EF
:1007C00070B504004FF0000604D094F871030025C2
:1007D00010B106E0012070BD84F87053204600F08F
:1007E00043F8032084F8710301220CE0C6EBC60035
:1007F00004EB800080F8292000F8286F761CC57073
:10080000C560056145616068B042EFD8002110E025
:10081000C1EBC10004EB800080F8CD5180F8CC1111
:1008200080F8CF51C0F8D851C0F8DC51491CC0F84D
:10083000E05160688842EBD82068A0F8402020682A
:10084000A0F840502068A0F844502068A0F850500C
:1008500021684FF43F40A1F8400084F8245084F808
:100860007123002070BD000000B500680F4987B0FB
:10087000884218D14FF4C05000900220019000200F
:100880000290032003900E20049069464FF09040A0
:10089000FFF71AFD0648C16941F40001C161C06952
:1008A00000F40000059007B000BD0000005C0040AF
:1008B000001002402DE9F84F04460068804DC00347
:1008C0007ED5E8690026C00008D4E86940F0805071
:1008D000E861E869012600F08050009079480168DD
:1008E000C90511D40168804641F480710160FFF7A9
:1008F000B9FD074604E0FFF7B5FDC01B642835D8F5
:10090000D8F80000C005F6D5286A10F4407052D01F
:10091000A18801F4407181424DD0286A4FF480379C
:1009200097FAA7F1B1FA81F18B0067494FF00108FE
:100930000B4420F44070C3F8008497FAA7F3B3FA8D
:1009400083F301EB83010022C1F800242862C00771
:1009500031D0FFF787FD074641F2883A4FF0020990
:1009600007E0FFF77FFDC11B514502D90320BDE819
:10097000F88F99FAA9F0B0FA80F040F040004946AB
:10098000B8EB501F01D128680BE091FAA1F0B0FA42
:1009900080F040F04000B1EB501F01D1286A00E028
:1009A000686A99FAA9F1B1FA81F101F01F0108FA18
:1009B00001F21042D5D0286A616820F4407000E04E
:1009C00006E0084328621EB1E86920F08050E86123
:1009D0002078C00705D0286BA16820F003000843E9
:1009E00028632078800705D5286BE16820F4403023
:1009F000084328632078400705D5286B216920F437
:100A00004020084328632078800605D5286BE169DB
:100A100020F01000084328632068800305D568682B
:100A2000A16B20F48000084368602078400605D55B
:100A3000286B216A20F020000843286320780007F3
:100A400005D5286B616920F440100843286320789D
:100A5000C00605D5286BA16920F44000084328632F
:100A60002088800505D56868E16A20F40000084305
:100A700068602078000605D5E86A616A20F4F8709D
:100A80000843E8622088C00505D5E86AA16A20F419
:100A900078500843E8622088C00405D5286B216B94
:100AA00020F48070084328632088800405D5286BD3
:100AB000616B20F4007008432863002057E70000B2
:100AC0000010024000700040000042422DE9F04753
:100AD0000D4604006DD0DFF83081D8F8000000F03A
:100AE0000700A8420CD2D8F8001021F007012943D2
:100AF000C8F80010D8F8000000F00700A84258D14C
:100B00002078424E800705D57068A16820F0F0007B
:100B1000084370602078C0073AD06068012201283D
:100B20000CD0022822D0022393FAA3F1B1FA81F16A
:100B300041F02001490904D0316803E04FF400334B
:100B4000F2E7716A93FAA3F3B3FA83F303F01F0396
:100B50009A4011422DD0716821F003010143716068
:100B6000FFF780FC074641F288390AE04FF0007336
:100B7000DAE7FFF777FCC11B494502D90320BDE83E
:100B8000F0877068616800F00C00B0EB810FF0D165
:100B9000D8F80010404601F00701A9420BD90168BE
:100BA00021F0070129430160006800F00700A84216
:100BB00001D00120E3E72078400705D57068E1689F
:100BC00020F4E060084370602078000706D5706864
:100BD000216920F4605040EAC100706000F05AF8CA
:100BE0007168F02292FAA2F201F0F001B2FA82F2F8
:100BF000D140074A515CC840064908600020FFF711
:100C000027FD0020BBE7000000200240001002404A
:100C1000882D00081C0000200F2202600C4A536837
:100C200003F003034360536803F0F00383605368E9
:100C300003F4E063C36052684FF4E06303EAD20256
:100C400002610448006800F0070008607047000077
:100C50000010024000200240014800687047000078
:100C60001C00002008480949006849684FF4E06208
:100C700092FAA2F201F4E061B2FA82F2D140044A9F
:100C8000515CC840704700001C000020001002406A
:100C9000982D0008144B10B55968144801F00C0247
:100CA000042A1DD0082A1BD14FF4701494FAA4F41E
:100CB00001F47012B4FA84F4E2400D4CDB6AA25CD9
:100CC0000F2494FAA4F403F00F03B4FA84F4E3407D
:100CD000074C1034C903E35C03D5B0FBF3F0504379
:100CE00010BD0448504310BD0010024000127A00AD
:100CF000682D000800093D002DE9F84F040071D06F
:100D00002078F94EC0074FF0010526D070684FF4E7
:100D10000038C0F38100012807D07068C0F381005B
:100D200002281BD17068C00318D598FAA8F0B0FA51
:100D300080F040F02000400901D0306800E0706A87
:100D400098FAA8F1B1FA81F101F01F0105FA01F159
:100D5000084262D060680028D1D05EE06068B0F5DB
:100D6000803F0BD010B1B0F5A02F17D0306820F421
:100D700080303060306820F4802002E0306840F439
:100D800080303060F06AA16820F00F000843F06204
:100D9000606818B3FFF766FB074609E0306840F467
:100DA00080203060EAE7FFF75DFBC01B64286FD846
:100DB00098FAA8F0B0FA80F040F02000400901D085
:100DC000306800E0706A98FAA8F1B1FA81F101F098
:100DD0001F0105FA01F10842E5D01EE0FFF742FBD2
:100DE000074605E0BFE0FFF73DFBC01B6428DED8E7
:100DF00098FAA8F0B0FA80F040F02000400901D045
:100E0000306800E0706A98FAA8F1B1FA81F101F057
:100E10001F0105FA01F10842E5D12078DFF8CC8204
:100E200080074FF0000B4FF0020730D570684FF08D
:100E3000F80A10F00C0F07D07068C0F38100022888
:100E400027D17068C00324D497FAA7F0B0FA80F0D5
:100E500040F02000400901D0306800E0706A97FA45
:100E6000A7F1B1FA81F101F01F0105FA01F1084281
:100E700002D02069012876D130689AFAAAF220F0CF
:100E8000F8016069B2FA82F290400143316059E0A2
:100E90005FE1206980B395FAA5F0B0FA80F048F8D8
:100EA0002050FFF7DFFA814605E0FFF7DBFAA0EB01
:100EB000090002289BD897FAA7F0B0FA80F040F01A
:100EC0002000400901D0306800E0706A97FAA7F16D
:100ED000B1FA81F101F01F0105FA01F10842E4D0F5
:100EE00030689AFAAAF26169B2FA82F220F0F80048
:100EF00091400843306025E0FFE795FAA5F0B0FA8D
:100F000080F048F820B0FFF7ADFA814605E0FFF722
:100F1000A9FAA0EB09000228CCD897FAA7F0B0FAFA
:100F200080F040F02000400901D0306800E0706A95
:100F300097FAA7F1B1FA81F101F01F0105FA01F169
:100F40000842E4D1207800076AD5A069A0B395FAD9
:100F5000A5F0B0FA80F008EB8000C0F88054FFF7ED
:100F600081FA814606E07FE1FFF77CFAA0EB0900F9
:100F700002289FD897FAA7F0B0FA80F040F06000FE
:100F8000B5EB501F01D130680BE097FAA7F0B0FA2B
:100F900080F040F06000B7EB501F01D1306A00E0F4
:100FA000706A97FAA7F1B1FA81F101F01F0105FA11
:100FB00001F21042D8D033E0FFE795FAA5F1B1FA7B
:100FC00081F108EB8101C1F880B4FFF74BFA81464B
:100FD00005E0FFF747FAA0EB090002289CD897FA32
:100FE000A7F0B0FA80F040F06000B5EB501F01D1DF
:100FF00030680BE097FAA7F0B0FA80F040F060009C
:10100000B7EB501F01D1306A00E0706A97FAA7F180
:10101000B1FA81F101F01F0105FA01F21042D8D1B5
:101020002078400772D5F0694FF0000AC00009D45B
:10103000F06940F08050F061F0694FF0010A00F073
:10104000805000902A480168C90511D4016841F414
:1010500080710160FFF706FA814605E0FFF702FAAA
:10106000A0EB0900642874D821480068C005F5D5B4
:10107000E06801280AD008B1052811D0306A20F0B4
:1010800001003062306A20F0040002E0306A40F073
:1010900001003062E06830B3FFF7E4F981460CE00C
:1010A000306A40F004003062F0E7FFF7DBF9A0EBB4
:1010B000090141F2883081424BD897FAA7F0B0FA83
:1010C00080F040F04000B5EB501F01D1306812E0D5
:1010D00097FAA7F0B0FA80F040F04000B7EB501F4D
:1010E00008D1306A07E012E00010024000004242DE
:1010F00000700040706A97FAA7F1B1FA81F101F02F
:101100001F0105FA01F21042CFD02EE034E0FFF7C4
:10111000A9F9814607E0FFF7A5F9A0EB090141F223
:101120008830814215D897FAA7F0B0FA80F040F0E5
:101130004000B5EB501F01D130680CE097FAA7F0E2
:10114000B0FA80F040F04000B7EB501F02D1306A97
:1011500001E086E0706A97FAA7F1B1FA81F101F037
:101160001F0105FA01F21042D5D1BAF1000F03D0E8
:10117000F06920F08050F061E06998B37168C1F3C4
:101180008101022970D002284FF080714FF0007A5F
:1011900058460AD091FAA1F1B1FA81F148F821003C
:1011A000FFF760F9044657465FE08B4691FAA1F1DC
:1011B000B1FA81F1C14648F82100FFF753F9A8467A
:1011C0000746554604E0FFF74DF9C01B022848D8F2
:1011D00095FAA5F0B0FA80F040F02000400902D066
:1011E000306801E056E0706A95FAA5F1B1FA81F134
:1011F00001F01F0208FA02F10842E4D1D4E9081014
:101200000843716821F47411084370609BFAABF0D5
:10121000B0FA80F0474649F82080FFF723F90446EA
:1012200004E0FFF71FF9001B02281AD895FAA5F071
:10123000B0FA80F040F02000400901D0306800E0B2
:10124000706A95FAA5F1B1FA81F101F01F0107FA70
:1012500001F10842E5D01DE0FFF704F9001B022868
:1012600003D90320BDE8F88F16E097FAA7F0B0FA8B
:1012700080F040F02000400901D0306800E0706A42
:1012800097FAA7F1B1FA81F101F01F0105FA01F116
:101290000842E1D10020E5E70120E3E72DE9F04134
:1012A000040005D00025A56294F85D0018B107E0A0
:1012B0000120BDE8F08184F85C50204600F04AF837
:1012C000022684F85D602068016821F04001016019
:1012D000E0684FF4E062904201D9002101E04FF450
:1012E0008051B0F5706F02D0904200D0A562276B9C
:1012F000012327B9904201D9266300E02363D4E992
:1013000001021043D4E9042632431043228B02F435
:1013100000721043E2691043226A1043A26A10432C
:1013200022681060626B606AA66910430427E26855
:1013300007EA164632431043084321684860206894
:10134000C16921F40061C161256684F85D30002027
:10135000AFE7000000B500680E4987B0884217D19A
:101360000D48816941F4805181618069694600F4CA
:1013700080500590E0200090022001900020029013
:1013800003200390052004904FF09040FEF79CFF4F
:1013900007B000BD00300140001002404FF0E021D6
:1013A0000428086903D020F004000861704740F069
:1013B0000400FAE710B5401EB0F1807F01D3012090
:1013C00010BD4FF0E02460610F21601700F0A4F918
:1013D0000020A06107202061002010BD70477047E9
:1013E000704710B5040003D094F83D0010B107E039
:1013F000012010BD002084F83C00204600F00CF8CD
:10140000022084F83D00211D206800F03BFA0120F5
:1014100084F83D00002010BD70470168CA6842F0A2
:101420000102CA600068016841F00101016000200A
:101430007047704770B50446006801694FF00005B9
:10144000C943890715D4C168C943890711D4E91E66
:10145000016101202077206880698007204602D042
:10146000FFF7E7FF04E000F0A7F8204600F0A5F83A
:10147000257720680169C943490717D4C168C94362
:10148000490713D46FF0040101610220207720681E
:10149000806910F4407F204602D0FFF7CAFF04E0C5
:1014A00000F08AF8204600F088F825772068016966
:1014B000C943090716D4C168C943090712D46FF09C
:1014C00008010161042020772068C0698007204658
:1014D00002D0FFF7AEFF04E000F06EF8204600F007
:1014E0006CF8257720680169C943C90617D4C1681B
:1014F000C943C90613D46FF0100101610820207799
:101500002068C06910F4407F204602D0FFF791FFA9
:1015100004E000F051F8204600F04FF825772068ED
:101520000169C943C90708D1C168C943C90704D1C2
:10153000891E0161204600F041F820680169C94315
:10154000090609D4C168C943090605D46FF08001B2
:1015500001612046FFF743FF20680169C943C905BF
:1015600009D4C168C943090605D46FF480710161CB
:101570002046FFF733FF20680169C943490609D4B3
:10158000C168C943490605D46FF040010161204696
:1015900000F01BF820680169C94389060BD4C168B3
:1015A000C943890607D46FF0200101612046BDE8D8
:1015B0007040FFF715BF70BD704770470068B0F10D
:1015C000804F01D1FFF72AB870477047FEE700004F
:1015D00070B5274886B0416941F400114161416905
:1015E00001F400110591416941F400214161416913
:1015F00001F400210591416941F480014161416993
:1016000001F480010591416941F400314161416972
:1016100001F400310591416941F480214161406943
:10162000144E00F480204FF60875059000222946DC
:101630003046FEF711FF372000900F480024CDE917
:10164000010469463046FEF73FFE00950125CDE9CD
:101650000154694630460394FEF736FECDE9005446
:1016600069464FF090400294FEF72EFE06B070BD22
:10167000001002400010004800001210114810B580
:101680000F4901601049416000210122C0E90212A6
:10169000016141618161C1610162FEF73DFF00B1FD
:1016A000FEE700210748FEF7E3FE00B1FEE7002158
:1016B0000448FEF708FF002800D0FEE710BD000038
:1016C00000540040800000200E090020104810B592
:1016D0000E4901604FF48271416000214FF4407265
:1016E000C0E902124FF400720161C0E9051208223C
:1016F000C0E9072107234162C0E90A13C0E90C12BF
:10170000FFF7CCFD002800D0FEE710BD00300140FF
:10171000CC000020FEE770470907090E002806DA12
:1017200000F00F0000F1E02080F8141D704700F178
:10173000E02080F80014704701000E4810B5806862
:101740000AD0012900D0FEE700230A22194600F042
:1017500097FF01280DD0FEE700231A46194601F035
:101760008BF805494FF080500860BFF34F8FBFF3EF
:101770006F8F10BD0000002004ED00E0012000F09C
:1017800031FAFBE700F03ABA30B59FB00320009081
:101790004FF4A0200024CDE9010401200490102082
:1017A000059002250003CDE907504FF4E0100990A1
:1017B0006846FFF7A1FA00B1FEE70F20CDE9190551
:1017C0004FF48060CDE91B40022119A81D94FFF75A
:1017D0007DF900B1FEE70D480A90119418940AA80B
:1017E000FFF768F800B1FEE7FFF736FA4FF47A71B9
:1017F000B0FBF1F0FFF7DEFD0420FFF7CFFD002284
:101800000F21501EFEF7AAFF1FB030BD20000200BE
:101810001448016841F4700101601348016841F007
:10182000010101604168114A114041600168104A9C
:1018300011400160016821F480210160416821F4B8
:10184000FE014160C16A21F00F01C162016B094ACA
:1018500011400163002181600249C00380390860A2
:101860007047000088ED00E0001002400CC07FF8D7
:10187000FFFFF6FECCFC00FF0148FFF7DBBD0000D8
:10188000D80400202DE9F0430268234C234D244E58
:10189000244B4FF08049A04207D0484505D0A842CC
:1018A00003D0B04201D0984203D122F070074A68B9
:1018B0003A431D4FDFF874C0DFF87480A0420DD0AA
:1018C00048450BD0A84209D0B04207D0984205D075
:1018D000B84203D0604501D0404503D122F44075A1
:1018E000CA682A434D6922F080022A4302608A684E
:1018F000C2620A688262A04207D0984205D0B8420C
:1019000003D0604501D0404501D10969016301213F
:101910004161BDE8F0830000002C0140000400405C
:1019200000080040003401400040014000440140F4
:1019300000480140104C4FF4FA754FF40046012066
:10194000FFF7FAFE012231462046FEF785FD002012
:10195000FFF7F2FE284600F0E5FC0120FFF7ECFE61
:10196000002231462046FEF777FD0020FFF7E4FE17
:10197000284600F0D7FCE2E700100048104C4FF476
:10198000FA754FF480760120FFF7D6FE012231462A
:101990002046FEF761FD0020FFF7CEFE284600F04E
:1019A000C1FC0120FFF7C8FE002231462046FEF7A9
:1019B00053FD0020FFF7C0FE284600F0B3FCE2E72D
:1019C00000100048104C4FF4FA754FF400760120D7
:1019D000FFF7B2FE012231462046FEF73DFD002012
:1019E000FFF7AAFE284600F09DFC0120FFF7A4FEA9
:1019F000002231462046FEF72FFD0020FFF79CFE17
:101A0000284600F08FFCE2E700100048104C4FF42D
:101A1000FA754FF480660120FFF78EFE01223146F1
:101A20002046FEF719FD0020FFF786FE284600F04D
:101A300079FC0120FFF780FE002231462046FEF7A8
:101A40000BFD0020FFF778FE284600F06BFCE2E774
:101A500000100048104C4FF4FA754FF40066012056
:101A6000FFF76AFE012231462046FEF7F5FC002012
:101A7000FFF762FE284600F055FC0120FFF75CFEF0
:101A8000002231462046FEF7E7FC0020FFF754FE17
:101A9000284600F047FCE2E700100048FEE702E0BD
:101AA00008C8121F08C1002AFAD1704770470020E9
:101AB00001E001C1121F002AFBD1704788B0FEF778
:101AC000B5FDFFF761FEFFF783FDFFF7D7FDFFF7D9
:101AD000FDFD2F482D4900240160082141600221AD
:101AE000C0E90214846104620161FEF769FE00B17D
:101AF000FEE703220021012000F09EFD254DA86095
:101B000020B100231A46194600F0B6FE14222249DD
:101B100002A8FEF7B3FB002102A800F079F81D4EE1
:101B20002860361DCDE90046002328221BA11D4850
:101B300000F08AFFCDE90046002328221AA11C48A4
:101B400000F082FFCDE900460023282219A11B489E
:101B500000F07AFFCDE900460023282218A11A4898
:101B600000F072FFCDE900460023282217A1194892
:101B700000F06AFF002202210A2000F05DFDE8600B
:101B800010B100F036F8FEE7FEE70000005C004010
:101B90003001002000000020542D00085461736BB8
:101BA00031000000351900085461736B32000000E9
:101BB0007D1900085461736B33000000C5190008DB
:101BC0005461736B340000000D1A00085461736B8C
:101BD00035000000551A000801460020842900D075
:101BE000C81C704710B500B9012000F09BFB002015
:101BF00010BD10B500F02EFC002010BD10B500F097
:101C00004FFF012803D0BDE8104000F0FFBC10BD1D
:101C10003EB504460D46B0F90800FFF7DDFF02A906
:101C2000CDE90001208A2B4682B2D4E9001000F0F1
:101C30000BFF012801D000203EBD02983EBD0000F0
:101C40002DE9F041184E0F460446F5683068001D36
:101C500000F0B2FA38B9306890F82C1001208840B2
:101C6000316981433161601C07D137B13168BDE80A
:101C7000F0410E48091D00F0D7BA30682C44AC4240
:101C80004460316805D2B06BBDE8F041091D00F039
:101C9000B3BA706B091D00F0AFFAB06A844200D28B
:101CA000B462BDE8F081000044000020F41100207F
:101CB0002DE9F041054600F0C3FA2E4EB068401CF5
:101CC000B06030682C4F10B1706940B32DE03560C2
:101CD000B068012829D1002404EB840007EB8000C0
:101CE00000F07CFA641C072CF6D323488C3000F0FB
:101CF00075FA2148A03000F071FA1F48B43000F0A6
:101D00006DFA1D48C83000F069FA1B48DC3000F05D
:101D100065FA19488C3070631430B06305E03068A0
:101D2000E96AC06A884200D83560706A0121401CA7
:101D30007062E86A326981401143316100EB8000D2
:101D400007EB8000291D00F06FFA00F099FA706926
:101D500000280CD03068E96AC06A884207D2074977
:101D60004FF080500860BFF34F8FBFF36F8FBDE817
:101D7000F0810000440000201811002004ED00E074
:101D800070B5124E124D1CE000F098FB306820B187
:101D9000002400F07DFFA4B901E00124F9E700F080
:101DA0004FFAF068C468201D00F006FAA868401ECB
:101DB000A8606868401E686000F062FA204600F083
:101DC00052F868680028DFD170BD0000E0110020E3
:101DD0004400002030B4026C0B46002A0BD0C168CE
:101DE0001144C1604468A14201D30168C16030BCA4
:101DF0001846FEF743BA30BC70472DE9F041856BB9
:101E0000174604460026026C82B1C7B1E068FEF7AF
:101E100035FAE168206C091AE1602268914202D229
:101E20006168081AE060022F16D017E02068A8B990
:101E3000606800F0A7FE0646002060600EE0A06823
:101E4000FEF71CFA216CA0680844A0606168884213
:101E500004D32068A06001E005B16D1E6D1CA56370
:101E60003046BDE8F08110B50446006B00F01CFA66
:101E70002046BDE8104000F017BA000010484FF4AB
:101E80004061420706D0C01D0D4920F00700411AED
:101E9000C1F540610B4A00230144C2E9000308393F
:101EA000103A21F0070111604B600B600B1AC0E97A
:101EB000001393604FF000405360D0607047000003
:101EC0001805002030000020074E4FF08054074DC9
:101ED000FFF756FF30680128FAD92C60BFF34F8F07
:101EE000BFF36F8FF4E700001811002004ED00E04D
:101EF0002DE9F0479A46DDE9098481466FF0030336
:101F0000206B03EB82021044089D20F00706700747
:101F100007D0502080F31188BFF34F8FBFF36F8F2E
:101F2000FEE723180A5C83F834200A5C12B1401CD7
:101F30001028F6D3002784F84370072D00D3062518
:101F4000E562C4E91157201D00F053F904F11800AF
:101F500000F04FF92461C5F107006462A061E764F5
:101F600084F8507052464946304600F00FF9206020
:101F7000B8F1000F01D0C8F80040BDE8F0870000BC
:101F800030B5114900E011460A688242FBD34B6824
:101F90005C18844203D1406818444860084643688E
:101FA0001C18944209D1084C103C2468A24209D064
:101FB00052681A4442600A6812680260814200D086
:101FC000086030BD0460F9E73000002010B5044619
:101FD00000F036F9A06B20B1002400F051F9204642
:101FE00010BD0124F9E700000648416B096829B1DA
:101FF000416BC968C9684968816270474FF0FF3119
:10200000FAE700004400002008484068401C4FF0F8
:10201000500080F3118804D0BFF34F8FBFF36F8F50
:10202000FEE7BFF34F8FBFF36F8FFEE7380000204E
:102030002DE9F041044600F003F994F9455004F10C
:10204000240609E0606A48B1304600F0E7FD08B1B7
:1020500000F08EF96D1E6DB2002DF3DC4FF0FF36EF
:1020600084F8456000F00CF900F0EAF894F9445067
:1020700004F1100709E0206948B1384600F0CEFDB0
:1020800008B100F075F96D1E6DB2002DF3DC84F817
:102090004460BDE8F04100F0F3B800002DE9F041E4
:1020A0000546002600F00AFA314F386808B9FFF7F4
:1020B000E5FEF86805424BD1C5B3083568070ED078
:1020C00005F00700C0F108000544680707D050205C
:1020D00080F31188BFF34F8FBFF36F8FFEE72DB3EF
:1020E0007868854234D8224910310846046801E0F6
:1020F000214604466068A84202D220680028F7D131
:102100003868844224D00E68206808606068083609
:10211000411B10290FD96019420708D0502080F3C5
:102120001188BFF34F8FBFF36F8FFEE710E0416060
:102130006560FFF725FF61687868401A7860BA68C3
:10214000904200D2B860F86801430020C4E9000161
:1021500000F09EFD700707D0502080F31188BFF378
:102160004F8FBFF36F8FFEE73046BDE8F081000070
:10217000200000200449086818B10868826C521CCD
:1021800082640868704700004400002010B5031FF7
:102190004FF080741C601B1F21F001011960191F92
:1021A000044B0B6014390A60091F6FF002024438B7
:1021B0000A6010BD09200008D0E9013201699A6067
:1021C000D0E901235A604A68824201D182684A609C
:1021D000002202610868401E0860704700F1080193
:1021E0004FF0FF32C0E90112C160016100210160BE
:1021F000704700210161704730B50C68621C02D045
:1022000000F1080202E0026904E01A4653681D6802
:10221000A542FAD953684B6099608A6051600861A1
:102220000168491C016030BD42684A6093688B6058
:1022300093685960916008610168491C01607047AA
:10224000502080F31188BFF34F8FBFF36F8F0A497F
:102250004868401C486001280CD10848006810F00C
:10226000FF0F07D0502080F31188BFF34F8FBFF3CB
:102270006F8FFEE7704700003800002004ED00E09B
:102280000849486828B1401E486001D180F3118890
:102290007047502080F31188BFF34F8FBFF36F8FCB
:1022A000FEE700003800002070B5002827D0144D4C
:1022B000A0F108046068E968084207D1502080F363
:1022C0001188BFF34F8FBFF36F8FFEE722683AB1DB
:1022D000502080F31188BFF34F8FBFF36F8FFEE75D
:1022E0008843606000F0EAF86068696808446860E4
:1022F0002046FFF745FEBDE8704000F0C9BC70BD48
:102300002000002006484FF47A710068B0FBF1F11C
:102310004FF0E020491E4161072101617047000034
:102320001C00002010B5020014D00F48006B38B11B
:10233000502080F31188BFF34F8FBFF36F8FFEE7FC
:1023400000F0BCF800211046FFF77AFC00F0A0FC7A
:10235000002807D105494FF080500860BFF34F8F28
:10236000BFF36F8F10BD00004400002004ED00E0BB
:1023700001490120C86170474400002010B50C4697
:1023800050B1094909681831FFF736FF2046BDE80A
:1023900010400121FFF754BC502080F31188BFF397
:1023A0004F8FBFF36F8FFEE74400002070B504002D
:1023B00039D01D4DE06A2968C96A884233D2A069C4
:1023C000002804DB2868C06AC0F10700A061E06A49
:1023D000164E00EB8000616906EB800081421FD140
:1023E000201DFFF7E9FE012150B9E06A00EB8002F1
:1023F00056F8222022B92A6901FA00F082432A61A4
:102400002868C06AE0622A6981401143296100EBB3
:10241000800006EB8000211DBDE87040FFF704BF7F
:102420002868C06AE06270BD4400002018110020D6
:1024300028B107490A6A0260C968416070475020A4
:1024400080F31188BFF34F8FBFF36F8FFEE700005B
:10245000440000201CB515480024CDE90040234667
:10246000802213A1144800F0EFFA012809D0401C83
:102470001AD1502080F31188BFF34F8FBFF36F8FB5
:10248000FEE7502080F31188BFF34F8FBFF36F8FAB
:1024900006484FF0FF312C38816201214161C46050
:1024A000BDE81C4000F040B81CBD000070000020DA
:1024B00049444C4500000000C91E00080248016B59
:1024C000491C01637047000044000020144A106B4F
:1024D00010B10120D06170470020D061106911490E
:1024E000B0FA80F0C0F11F0000EB800051F82030FE
:1024F0006BB101EB800000F108034168496841605D
:10250000994201D149684160C86810607047502005
:1025100080F31188BFF34F8FBFF36F8FFEE700008A
:1025200044000020181100201CB533480168334ACC
:10253000914207D1502080F31188BFF34F8FBFF332
:102540006F8FFEE700682D49491E884207D1502051
:1025500080F31188BFF34F8FBFF36F8FFEE72849D9
:1025600008780190FF20087008788DF800009DF829
:1025700000009DF8002000F0F000904207D05020AD
:1025800080F31188BFF34F8FBFF36F8FFEE79DF885
:1025900000001C4A00F0500010700720906007E017
:1025A0009068401E90609DF8000040008DF800008B
:1025B0009DF800000006F3D4107A000200F4E060F9
:1025C0009060019808700C482030016841F4700157
:1025D0000160016841F070410160FFF793FE002047
:1025E0005060FDF7FBFD0848016841F04041016083
:1025F000FDF7E4FD00201CBD00ED00E071C20F41BD
:1026000000E400E03800002034EF00E010B5502076
:1026100080F31188BFF34F8FBFF36F8F00F04EFA36
:1026200018B104494FF080500860002080F31188F1
:1026300010BD000004ED00E070B50E46050013D09B
:10264000D6B105FB06F04830FFF728FD040009D09D
:1026500004F1480120468EB10160C0E90F56012106
:1026600000F0C6F8204670BD502080F31188BFF3FB
:102670004F8FBFF36F8FFEE70020E4E70060ECE7C9
:102680002DE9FF4F83B09B468A4604004FF00006B9
:1026900003D0BAF1000F08D011E0502080F3118868
:1026A000BFF34F8FBFF36F8FFEE7206C38B1502020
:1026B00080F31188BFF34F8FBFF36F8FFEE700F0F9
:1026C000EFF9DFF828814FF000094FF0805748B943
:1026D000059838B1502080F31188BFF34F8FBFF3B6
:1026E0006F8FFEE7FFF7ACFDA56B45B35146204663
:1026F000E668FFF76FFBBBF1000F13D0E660606A7E
:1027000050B104F1240000F089FA28B1C8F8007033
:10271000BFF34F8FBFF36F8FFFF7B2FD012007B0FC
:10272000BDE8F08F6D1EA563206810B9FFF722FD8C
:10273000606020690028EFD004F11000E3E70598FD
:1027400008B11EB106E0FFF79BFD27E06846FFF7E2
:102750006FFE0126FFF794FDFFF7B0FEFFF770FD57
:1027600094F94400401C01D184F8449094F9450048
:10277000401C01D184F84590FFF782FD05A9684609
:1027800000F02CF9002820460AD0FFF751FC00F099
:102790007FFA2046FFF71AFC0028A3D00020BEE7EE
:1027A000FFF714FCD8B1206830B9FFF749FD606825
:1027B000FFF7FCFDFFF764FD04F124000599FFF726
:1027C000DDFD2046FFF734FC00F062FA002889D1D5
:1027D000C8F80070BFF34F8FBFF36F8F82E72046BA
:1027E000FFF726FC00F054FA7CE7000004ED00E05F
:1027F00070B50D46040025D0FFF722FDD4E90F2067
:10280000216802FB001161600021A1632168A160C1
:102810000A46D4E90F01401E00FB0121E160214678
:102820004FF0FF3001F8440F487004F110008DB1F3
:10283000FFF7D4FC04F12400FFF7D0FCFFF720FDE4
:10284000012070BD502080F31188BFF34F8FBFF37C
:102850006F8FFEE721690029F0D000F0DFF9002832
:10286000ECD004494FF080500860BFF34F8FBFF3A6
:102870006F8FE3E704ED00E02DE9FF4F83B01F46C3
:102880008B4604004FF0000603D0BBF1000F08D0C8
:1028900011E0502080F31188BFF34F8FBFF36F8F8B
:1028A000FEE7206C38B1502080F31188BFF34F8FC2
:1028B000BFF36F8FFEE7022F0AD1E06B012807D02C
:1028C000502080F31188BFF34F8FBFF36F8FFEE767
:1028D00000F0E6F8DFF800914FF0000A4FF0805862
:1028E00048B9059838B1502080F31188BFF34F8F55
:1028F000BFF36F8FFEE7FFF7A3FCA06BE16B88428D
:1029000005D3022F03D00598C8B1DEB11EE03A46C8
:1029100059462046FFF771FA616A19B104F12400A3
:1029200000F07CF928B1C9F80080BFF34F8FBFF3E6
:102930006F8FFFF7A5FC012007B0BDE8F08FFFF710
:102940009FFC21E06846FFF773FD0126FFF798FC26
:10295000FFF7B4FDFFF774FC94F94400401C01D16B
:1029600084F844A094F94500401C01D184F845A0A6
:10297000FFF786FC05A9684600F030F830B1204624
:10298000FFF756FB00F084F90020D5E7FFF758FC6D
:10299000A06BE16B884201D1012500E00025FFF723
:1029A0006FFC95B104F110000599FFF7E7FC204694
:1029B000FFF73EFB00F06CF900289CD1C9F80080BD
:1029C000BFF34F8FBFF36F8F95E72046FFF730FBC4
:1029D00000F05EF98FE7000004ED00E070B50D46F1
:1029E000040019D005B3FFF72BFC164AD0682968FC
:1029F0004B1C0FD02368126A934202D06268824255
:102A00001AD96268801A884216D2081A28602046AD
:102A1000FFF70EFD002410E0502080F31188BFF373
:102A20004F8FBFF36F8FFEE7502080F31188BFF305
:102A30004F8FBFF36F8FFEE70124FFF721FC204685
:102A400070BD0000440000202DE9FF5F8346DDE9F2
:102A50000E87994616468A469000FFF71FFB050031
:102A60001AD05420FFF71AFB040012D0256300216E
:102A7000CDE90241CDE900874B46324651465846E2
:102A8000FFF736FA2046FFF713F9012004B0BDE83E
:102A9000F09F2846FFF708FC4FF0FF30F6E70000F4
:102AA0000548416919B1006B18B100207047012039
:102AB0007047022070470000440000202DE9F041DB
:102AC0002E4F0026386B40B1B869401CB861F869D8
:102AD00000B101263046BDE8F081FD686D1CFD6047
:102AE00013D1786B006838B1502080F31188BFF3A0
:102AF0004F8FBFF36F8FFEE7786BB96B7963B86365
:102B0000386A401C3862FFF76FFAB86ADFF87080E5
:102B1000854209D3786B006880B1786BC068C4685F
:102B2000606885420DD2B8623868C06A00EB8001E7
:102B300058F821000128CAD90126C8E74FF0FF3014
:102B4000F1E7201DFFF738FBA06A18B104F1180067
:102B5000FFF732FBE06A01213A6981401143396194
:102B600000EB800108EB8100211DFFF75DFBE06AAF
:102B70003968C96A8842CDD30126CBE744000020DA
:102B80001811002070B504004FF0000041D0214D15
:102B900029688C4207D0502080F31188BFF34F8FF3
:102BA000BFF36F8FFEE7A16C71B1491EA164636C26
:102BB000E26A9A422DD000292BD1201DFFF7FCFAA2
:102BC0001549012240B112E0502080F31188BFF373
:102BD0004F8FBFF36F8FFEE7E06A00EB800351F881
:102BE000233023B92B6902FA00F083432B61606C18
:102BF000E062C0F10700A061E06A2B6982401A43DD
:102C00002A6100EB800001EB8000211DFFF70CFB27
:102C1000012070BD44000020181100202DE9F04172
:102C2000C068C468ACB104F118000746FFF7C4FAE5
:102C3000154D286B0126A0B139461448FFF7F4FA68
:102C4000E06A2968C96A88421CD90120EE61BDE8A2
:102C5000F081502080F31188BFF34F8FBFF36F8F47
:102C6000FEE7201DFFF7A8FAE06A2A6906FA00F1DC
:102C700011432961054900EB8000B43901EB800064
:102C8000211DDBE70020E2E744000020CC110020FA
:102C90002DE9F0472C4D00242746286B38B1FFF76B
:102CA000CFFA286B401E2863286B40B146E05020C5
:102CB00080F31188BFF34F8FBFF36F8FFEE7A868D3
:102CC00022490126D0B3A1F1B4098846D8F80010F2
:102CD000E9B1D8F80C00C46804F11800FFF76CFAE9
:102CE000201DFFF769FAE06A2A6906FA00F111432C
:102CF000296100EB800109EB8100211DFFF794FAA7
:102D0000E06A2968C96A8842E0D3EE61DEE70CB167
:102D1000FFF76AF9AC693CB1FFF7D0FE00B1EE6194
:102D2000641EF9D10020A861E86938B1084901277B
:102D300038070860BFF34F8FBFF36F8FFFF7A0FA1C
:102D40003846BDE8F087000044000020CC11002088
:102D500004ED00E0A02D00087D1700080000000031
:102D600000000000800000000203040506070809B7
:102D70000A0B0C0D0E0F10100102030405060708C4
:102D8000090A0B0C0D0E0F100000000000000000DF
:102D90000102030406070809000000000102030401
:102DA00064656661756C745461736B00CC2D0008AA
:102DB00000000020800000009E1A00084C2E000831
:102DC0008000002088150000AE1A000800000000F6
:102DD00000000000000000000000000001000000F2
:102DE000100000000000000000127A000000000047
:102DF00000000000000000000000000000000000D3
:102E00000000000000000000AAAAAAAA000000001A
:102E100000000000000000000000000000000000B2
:102E200000000000000000000000000000000000A2
:102E30000000000000000000000000000000000092
:0C2E400000000000000000000000000086
:040000050800018965
:00000001FF
