:020000040800F2
:100000001016002059020008F3160008A915000870
:10001000F1160008C5020008CD1800080000000015
:100020000000000000000000000000009D0100082A
:10003000C702000800000000F10100081D170008B9
:1000400073020008730200087302000873020008BC
:1000500073020008730200087302000873020008AC
:10006000730200087302000873020008730200089C
:10007000730200087302000873020008730200088C
:10008000730200087302000873020008730200087C
:10009000730200087302000873020008730200086C
:1000A000730200087302000873020008730200085C
:1000B0001118000873020008730200087302000898
:1000C000730200087302000873020008730200083C
:1000D000730200087302000873020008730200082C
:1000E000730200087302000873020008730200081C
:1000F000730200087302000873020008730200080C
:100100000000000000000000000000007302000872
:1001100073020008730200087302000873020008EB
:1001200073020008730200087302000873020008DB
:1001300073020008730200080000000000000000C5
:100140007302000873020008730200080000000038
:10015000000000000000000000000000000000009F
:100160000000000000000000730200087302000895
:100170007302000800000000000000000000000002
:100180000000000073020008DFF80CD000F088F8CF
:1001900000480047ED180008101600202B4B196886
:1001A0000868B0E8F04F80F30988BFF36F8F4FF015
:1001B000000080F3118870470000000006480068C6
:1001C000006880F3088862B661B6BFF34F8FBFF353
:1001D0006F8F00DF00BF00BF08ED00E0DFF80C000C
:1001E000016841F470010160704700BF88ED00E0D4
:1001F000EFF30980BFF36F8F144B1A681EF0100FD6
:1002000008BF20ED108A20E9F04F106008B44FF0CD
:10021000500080F31188BFF34F8FBFF36F8F02F050
:1002200003F94FF0000080F3118808BC19680868D2
:10023000B0E8F04F1EF0100F08BFB0EC108A80F34A
:100240000988BFF36F8F704700BF00BF48000020D0
:10025000EFF30580704700000648804706480047D6
:10026000FEE7FEE7FEE7FEE7FEE7FEE7FEE7FEE766
:10027000FEE7FEE7A91700088901000840EA01032C
:100280009B0703D009E008C9121F08C0042AFAD24C
:1002900003E011F8013B00F8013B521EF9D2704710
:1002A000064C074D06E0E06840F0010394E80700C3
:1002B00098471034AC42F6D3FFF76AFF242D0008AC
:1002C000442D0008FEE770472DE9F84FDFF864B1D0
:1002D00000234FF0010C4FF0030A4FF00F090BF110
:1002E000040EA0E00CFA03F6324072D04C68022CE7
:1002F00001D0122C0ED1DC0800EB8408D8F8204085
:100300005D07EF0E09FA07F5AC430D69BD402543C3
:10031000C8F8205007685D0091F804800AFA05F4D7
:1003200008F00308A74308FA05F848EA0708C0F8E8
:1003300000804F68012F05D0022F03D0112F01D06C
:10034000122F11D18768D1F80C80A74308FA05F85D
:1003500048EA0708C0F808804768B7430E79C6F333
:1003600000169E403E434660C668A6438C68AC407B
:100370003443C4604C68E40054D52F4CA56945F063
:100380000105A561A46923F0030504F001040094AC
:100390002A4C2E19B4689D072F0F09FA07F5AC43B4
:1003A000B0F1904F04D0264DA84203D1012512E0B0
:1003B000002510E0234DA84201D102250BE0224D7B
:1003C000A84201D1032506E0204DA84202D1042510
:1003D00001E027E00525BD402543B560DBF800407E
:1003E0005D464E689443F60300D514432C60DEF856
:1003F000004075464E689443B60300D514432C6004
:100400000C4D08352C684E689443F60200D5144311
:100410002C60084D0C352C684E689443B60200D50C
:1004200014432C605B1C0A6832FA03F47FF45AAF61
:10043000BDE8F88F000401400010024000000140B8
:100440000004004800080048000C00480010004864
:100450000AB181617047816270470000014880687D
:10046000704700001400002090F84120202A24D179
:1004700090F84020012A20D0012280F84020242238
:1004800080F841200268136823F0010313600268BA
:10049000136823F480531360026813680B431360DE
:1004A00001680A6842F001020A60202180F84110C8
:1004B000002180F84010084670470220704790F8ED
:1004C0004120202A22D190F84020012A1ED001226A
:1004D00080F84020242280F841200268136823F02D
:1004E000010313600268136823F4706343EA012177
:1004F000116001680A6842F001020A60202180F858
:100500004110002180F840100846704702207047D3
:1005100070B5040004D094F84100002510B106E045
:10052000012070BD84F84050204600F04DF8242092
:1005300084F841002068016821F0010101606068D1
:10054000216820F0706008612068816821F4004112
:100550008160E0680128A06807D040F40440216869
:100560008860E068022803D006E040F40040F6E727
:1005700021684FF40060486020684168114A1143C7
:1005800041602068C16821F40041C160D4E90401E0
:100590000843A16940EA01202168C860D4E9070145
:1005A0000843216808602068016841F0010101608A
:1005B0006564202084F84100256384F842500020BF
:1005C00070BD00000080000200B500680E4987B0D1
:1005D000884216D1C0200090122001900120029084
:1005E000032003900420049069460848FFF76CFE3E
:1005F0000748C16941F40011C161C06900F40010ED
:10060000059007B000BD0000005400400004004801
:1006100000100240024881680278114481607047EE
:1006200014000020074810B5016841F01001016076
:10063000032000F0AFF8002000F006F800F03EF8CC
:10064000002010BD0020024000B5014687B0002206
:100650001C2000F07FF81C2000F070F81448C169DD
:1006600041F00101C161C06905A900F001000690D7
:10067000684600F0C9FA00F0EDFA0E494000B0FB00
:10068000F1F10D484FF08042491E0260416040F296
:10069000E7320021C0E90321816000F090FE10B133
:1006A000012007B000BD044800F0A5FEF9E70000F6
:1006B0000010024040420F00DC0400201E4808B534
:1006C000816941F001018161816901F001010091BD
:1006D000C16941F08051C161C06900F08050009053
:1006E000032000F057F8002211466FF00B0000F0D5
:1006F00031F8002211466FF00A0000F02BF80022BA
:1007000011466FF0090000F025F800221146501F35
:1007100000F020F800221146101F00F01BF8002204
:100720000F21901E00F016F800220F21BDE80840AE
:10073000501E00F00FB800000010024000F01F0231
:10074000012191404009800000F1E020C0F8001133
:1007500070470000F0B40E4B1B680C46C3F3022335
:10076000C3F10705042D00D90425191D072901D25D
:10077000002300E0DB1E012606FA05F1491E214098
:1007800099409E40761E16403143F0BC00F0B2BF47
:100790000CED00E0064900F0070208684FF6FF0381
:1007A000184040EA0220034A1043086070470000E6
:1007B0000CED00E00000FA0570B504004FF00006F3
:1007C00004D094F87103002510B106E0012070BD3B
:1007D00084F87053204600F043F8032084F8710336
:1007E00001220CE0C6EBC60004EB800080F8292053
:1007F00000F8286F761CC570C560056145616068AA
:10080000B042EFD8002010E0C0EBC00104EB810142
:1008100081F8CD5181F8CC0181F8CF51C1F8D85180
:10082000C1F8DC51401CC1F8E05161688142EBD84D
:100830002068A0F840202068A0F840502068A0F868
:1008400044502068A0F8505021684FF43F40A1F870
:10085000400084F8245084F87123002070BD00000B
:1008600000B500680F4987B0884218D14FF4C050D6
:1008700000900220019000200290032003900E209F
:10088000049069464FF09040FFF71EFD0648C1698D
:1008900041F40001C161C06900F40000059007B097
:1008A00000BD0000005C0040001002402DE9F84F40
:1008B00004460068804DC0036FD5E8690026C0007B
:1008C00008D4E86940F08050E861E869012600F04A
:1008D0008050009079480168C90512D401688046AB
:1008E00041F480710160FFF7B9FD074605E000BFE4
:1008F000FFF7B4FDC01B642835D8D8F80000C00548
:10090000F6D5286A10F4407053D0A18801F44071E4
:1009100081424ED0286A4FF4803191FAA1F2B2FAA6
:1009200082F29700664A4FF00108174420F44070A5
:10093000C7F8008491FAA1F1B1FA81F102EB8101CB
:100940000023C1F800342862C00732D0FFF786FDCB
:10095000074641F2883A4FF0020907E0FFF77EFDB3
:10096000C11B514502D90320BDE8F88F99FAA9F1BE
:10097000B1FA81F141F040014846B8EB511F01D175
:1009800029680CE090FAA0F1B1FA81F141F0400140
:10099000B0EB511F02D1296A01E015E0696A99FAAA
:1009A000A9F0B0FA80F000F01F0008FA00F211423E
:1009B000D4D0286A616820F44070084328621EB1D0
:1009C000E86920F08050E8612078C00705D0286BE6
:1009D000A16820F00300084328632078800705D52C
:1009E000286BE16820F440300843286320784007F2
:1009F00005D5286B216920F440200843286320781E
:100A0000800605D5286BE16920F0100008432863B3
:100A10002068800305D56868A16B20F48000084336
:100A200068602078400605D5286B216A20F02000F8
:100A3000084328632078000705D5286B616920F4F6
:100A40004010084328632078C00605D5286BA169AB
:100A500020F44000084328632088800505D5686895
:100A6000E16A20F40000084368602078000605D59C
:100A7000E86A616A20F4F8700843E8622088C005DB
:100A800005D5E86AA16A20F478500843E862208816
:100A9000C00405D5286B216B20F4807008432863BF
:100AA0002088800405D5286B616B20F40070084312
:100AB0002863002058E7000000100240007000404A
:100AC000000042422DE9F0470F46050069D04A4E2A
:100AD000306800F00700B84209D2306820F0070003
:100AE00038433060306800F00700B84259D12878A8
:100AF000424C800705D56068A96820F0F0000843E3
:100B000060602878C0073DD06968012001290DD0B8
:100B1000022923D05FF0020393FAA3F2B2FA82F221
:100B200042F02002520904D0226803E04FF400335F
:100B3000F2E7626A93FAA3F3B3FA83F303F01F03B5
:100B4000984002422DD0606820F0030008436060A6
:100B5000FFF784FC804641F288390CE04FF00073C7
:100B6000DAE700BFFFF77AFCA0EB0801494502D99C
:100B70000320BDE8F0876068696800F00C00B0EB06
:100B8000810FEFD1306800F00700B8420BD9306810
:100B900020F0070038433060306800F00700B842AA
:100BA00001D00120E5E72878400705D56068E968AD
:100BB00020F4E060084360602878000706D560688C
:100BC000296920F4605040EAC100606000F05AF8E2
:100BD0006168F02292FAA2F201F0F001B2FA82F218
:100BE000D140074A515CC840064908600020FFF721
:100BF0002BFD0020BDE70000002002400010024055
:100C0000002D0008200000200F2202600C4A5368CB
:100C100003F003034360536803F0F00383605368F9
:100C200003F4E063C36052684FF4E06303EAD20266
:100C300002610448006800F0070008607047000087
:100C40000010024000200240014800687047000088
:100C50002000002008480949006849684FF4E06214
:100C600092FAA2F201F4E061B2FA82F2D140044AAF
:100C7000515CC84070470000200000200010024076
:100C8000102D0008144B10B55A68144802F00C01DE
:100C900004291DD008291BD14FF4701494FAA4F430
:100CA00002F47011B4FA84F4E1400D4CDB6A615C2B
:100CB0000F2494FAA4F403F00F03B4FA84F4E3408D
:100CC000074C1034D203E35C03D5B0FBF3F0484388
:100CD00010BD0448484310BD0010024000127A00C5
:100CE000E02C000800093D002DE9F84F040071D008
:100CF0002078FB4DC0074FF0010625D068687704C7
:100D0000C0F38100012807D06868C0F38100022881
:100D10001BD16868C00318D597FAA7F0B0FA80F025
:100D200040F02000400901D0286800E0686A97FA86
:100D3000A7F1B1FA81F101F01F0106FA01F10842B1
:100D400065D060680028D2D061E06068B0F5803F6F
:100D50000BD010B1B0F5A02F17D0286820F4803048
:100D60002860286820F4802002E0286840F4803061
:100D70002860E86AA16820F00F000843E862606814
:100D800020B3FFF76BFB80460AE0286840F4802020
:100D90002860EAE7FFF762FBA0EB0800642872D83E
:100DA00097FAA7F0B0FA80F040F02000400901D097
:100DB000286800E0686A97FAA7F1B1FA81F101F0BA
:100DC0001F0106FA01F10842E4D020E0FFF746FBDC
:100DD000804607E0C7E000BFFFF740FBA0EB08003C
:100DE0006428DCD897FAA7F0B0FA80F040F0200031
:100DF000400901D0286800E0686A97FAA7F1B1FAC3
:100E000081F101F01F0106FA01F10842E4D12078D6
:100E1000DFF8D08280074FF0000A4FF0020759D563
:100E200068684FF0F80B10F00C0F07D06868C0F33B
:100E3000810002281BD16868C00318D497FAA7F074
:100E4000B0FA80F040F02000400901D0286800E0AE
:100E5000686A97FAA7F1B1FA81F101F01F0106FA69
:100E600001F108422BD0206901287CD127E02069BC
:100E700088B396FAA6F0B0FA80F048F82060FFF741
:100E8000EDFA814606E055E1FFF7E8FAA0EB09002C
:100E9000022884D897FAA7F0B0FA80F040F020003A
:100EA000400901D0286800E0686A97FAA7F1B1FA12
:100EB00081F101F01F0106FA01F10842E4D028682F
:100EC0009BFAABF26169B2FA82F220F0F80091402D
:100ED0000843286025E0FFE796FAA6F1B1FA81F110
:100EE00048F821A0FFF7BAFA814605E0FFF7B6FA05
:100EF000A0EB09000228CCD897FAA7F0B0FA80F04E
:100F000040F02000400901D0286800E0686A97FAA4
:100F1000A7F1B1FA81F101F01F0106FA01F10842CF
:100F2000E4D1207800076AD5A069A0B396FAA6F0AC
:100F3000B0FA80F008EB8000C0F88064FFF78EFA0A
:100F4000814605E0FFF78AFAA0EB09000228A0D845
:100F500097FAA7F0B0FA80F040F06000B6EB501FAF
:100F600002D128680CE077E197FAA7F0B0FA80F098
:100F700040F06000B7EB501F01D1286A00E0686ABA
:100F800097FAA7F1B1FA81F101F01F0106FA01F217
:100F90001042D7D033E0FFE796FAA6F0B0FA80F01F
:100FA00008EB8000C0F880A4FFF758FA814605E0FE
:100FB000FFF754FAA0EB090002289CD897FAA7F093
:100FC000B0FA80F040F06000B6EB501F01D1286805
:100FD0000BE097FAA7F0B0FA80F040F06000B7EBB2
:100FE000501F01D1286A00E0686A97FAA7F1B1FAA8
:100FF00081F101F01F0106FA01F21042D8D12078E8
:10100000400774D5E8694FF00009C00009D4E869C9
:1010100040F08050E861E8694FF0010900F080502D
:10102000009031480168C90512D4016841F480710B
:101030000160FFF713FA834606E000BFFFF70EFAE0
:10104000A0EB0B00642875D827480068C005F5D5CB
:10105000E06801280AD008B1052811D0286A20F0DC
:1010600001002862286A20F0040002E0286A40F0AB
:1010700001002862E068C8B3FFF7F0F983460DE08D
:10108000286A40F004002862F0E700BFFFF7E6F9A5
:10109000A0EB0B0141F2883081424BD897FAA7F0C0
:1010A000B0FA80F040F04000B6EB501F01D1286844
:1010B0000BE097FAA7F0B0FA80F040F04000B7EBF1
:1010C000501F01D1286A00E0686A97FAA7F1B1FAC7
:1010D00081F101F01F0106FA01F21042D6D035E08D
:1010E00000100240000042420070004000E034E086
:1010F000FFF7B4F9834607E0FFF7B0F9A0EB0B0167
:1011000041F28830814215D897FAA7F0B0FA80F002
:1011100040F04000B6EB501F01D128680CE097FA70
:10112000A7F0B0FA80F040F04000B7EB501F02D1BA
:10113000286A01E083E0686A97FAA7F1B1FA81F1C1
:1011400001F01F0106FA01F21042D5D1B9F1000FEA
:1011500003D0E86920F08050E861E06980B36968F5
:10116000C1F38101022977D04FF080714F0002282E
:1011700009D091FAA1F0B0FA80F048F820A0FFF76A
:101180006DF904465EE050468A4691FAA1F1B1FA43
:1011900081F1C14648F82100FFF760F9804605E07B
:1011A000FFF75CF9A0EB0800022848D897FAA7F0EF
:1011B000B0FA80F040F02000400902D0286801E039
:1011C00056E0686A97FAA7F1B1FA81F101F01F01C0
:1011D00006FA01F10842E3D1D4E90810084369682E
:1011E00021F47411084368609AFAAAF0B0FA80F00A
:1011F00049F82060FFF732F9044604E0FFF72EF9C2
:10120000001B02281BD897FAA7F0B0FA80F040F034
:101210002000400901D0286800E0686A97FAA7F129
:10122000B1FA81F101F01F0106FA01F10842E5D09F
:101230001EE000BFFFF712F9001B022802D90320AD
:10124000BDE8F88F97FAA7F0B0FA80F040F02000E0
:10125000400902D0286801E00CE0686A97FAA7F11B
:10126000B1FA81F101F01F0106FA01F10842E1D162
:101270000020E5E70120E3E72DE9F041040005D077
:101280000025A56294F85D0018B107E00120BDE8D3
:10129000F08184F85C50204600F04AF8022384F87C
:1012A0005D302068016821F040010160E0684FF482
:1012B000E066B04201D9002101E04FF48051B0F561
:1012C000706F02D0B04200D0A562276B012227B90F
:1012D000B04201D9236300E02263D4E9010318433B
:1012E000D4E9043633431843238B03F400731843C3
:1012F000E3691843236A1843A36A184323681860F4
:10130000636B606AA66918430427E36807EA164618
:10131000334318430843216848602068C16921F4B9
:101320000061C161256684F85D200020AFE7000000
:1013300000B500680E4987B0884217D10D48816911
:1013400041F4805181618069694600F480500590C4
:10135000E0200090022001900020029003200390E2
:10136000052004904FF09040FEF7AEFF07B000BD9F
:1013700000300140001002404FF0E02104280869CD
:1013800003D020F004000861704740F00400FAE741
:1013900010B5401EB0F1807F01D3012010BD4FF089
:1013A000E02460610F21601700F0A4F90020A06123
:1013B00007202061002010BD70477047704710B5AE
:1013C000040003D094F83D0010B107E0012010BDE7
:1013D000002084F83C00204600F00CF8022084F83D
:1013E0003D00211D206800F019FA012084F83D001D
:1013F000002010BD70470168CA6842F00102CA604F
:101400000068016841F001010160002070477047E9
:1014100070B50446006801694FF00005C9438907AB
:1014200015D4C168C943890711D4E91E016101209F
:101430002077206880698007204602D0FFF7E7FF09
:1014400004E000F0A7F8204600F0A5F82577206812
:101450000169C943490717D4C168C943490713D46F
:101460006FF004010161022020772068806910F488
:10147000407F204602D0FFF7CAFF04E000F08AF860
:10148000204600F088F8257720680169C9430907DC
:1014900016D4C168C943090712D46FF0080101616D
:1014A000042020772068C0698007204602D0FFF71B
:1014B000AEFF04E000F06EF8204600F06CF82577EF
:1014C00020680169C943C90617D4C168C943C90660
:1014D00013D46FF010010161082020772068C069E3
:1014E00010F4407F204602D0FFF791FF04E000F0A7
:1014F00051F8204600F04FF8257720680169C9436C
:10150000C90708D1C168C943C90704D1891E01614F
:10151000204600F041F820680169C943090609D452
:10152000C168C943090605D46FF0800101612046F6
:10153000FFF743FF20680169C943C90509D4C168A1
:10154000C943090605D46FF4807101612046FFF795
:1015500033FF20680169C943490609D4C168C943FA
:10156000490605D46FF040010161204600F01BF8E8
:1015700020680169C94389060BD4C168C94389063B
:1015800007D46FF0200101612046BDE87040FFF7ED
:1015900015BF70BD704770470068B0F1804F01D132
:1015A000FFF738B870477047FEE7000070B527486E
:1015B00086B0416941F400114161416901F40011B3
:1015C0000591416941F400214161416901F4002123
:1015D0000591416941F480014161416901F4800153
:1015E0000591416941F400314161416901F40031E3
:1015F0000591416941F4802141614069144E00F434
:1016000080204FF608750590002229463046FEF7E7
:101610001FFF372000900F480024CDE901046946E0
:101620003046FEF751FE00950125CDE9015469468B
:1016300030460394FEF748FECDE9005469464FF06A
:1016400090400294FEF740FE06B070BD00100240CC
:101650000010004800001210114810B50F49016039
:101660001049416000210122C0E90212016141617B
:101670008161C1610162FEF74BFF00B1FEE700210D
:101680000748FEF7F1FE00B1FEE700210448FEF72F
:1016900016FF002800D0FEE710BD000000540040F7
:1016A000840000200E090020104810B50E4901608A
:1016B0004FF48271416000214FF44072C0E9021280
:1016C0004FF400720161C0E905120822C0E9072148
:1016D00007234162C0E90A13C0E90C12FFF7CCFDF1
:1016E000002800D0FEE710BD00300140D0000020EF
:1016F000FEE770470907090E002806DA00F00F0020
:1017000000F1E02080F8141D704700F1E02080F81F
:1017100000147047012000F057F9FBE700F060B9B2
:1017200030B59FB0032000904FF4A0200024CDE9F5
:101730000104012004901020059002250003CDE94A
:1017400007504FF4E01009906846FFF7CDFA00B15A
:10175000FEE70F20CDE919054FF48060CDE91B406D
:10176000022119A81D94FFF7ADF900B1FEE70D485D
:101770000A90119418940AA8FFF798F800B1FEE7B0
:10178000FFF762FA4FF47A71B0FBF1F0FFF700FE59
:101790000420FFF7F1FD00220F21501EFEF7DAFFB3
:1017A0001FB030BD200002001448016841F47001F0
:1017B00001601348016841F0010101604168114A6C
:1017C000114041600168104A11400160016821F434
:1017D00080210160416821F4FE014160C16A21F06D
:1017E0000F01C162016B094A114001630021816050
:1017F0000249C003803908607047000088ED00E0AE
:10180000001002400CC07FF8FFFFF6FECCFC00FF8A
:101810000148FFF7FDBD0000DC0400202DE9F04386
:101820000268234B234D244E244C4FF080499842AC
:1018300007D0484505D0A84203D0B04201D0A0420D
:1018400003D122F070074A683A431D4FDFF874C095
:10185000DFF8748098420DD048450BD0A84209D0DB
:10186000B04207D0A04205D0B84203D0604501D0B5
:10187000404503D122F44075CA682A434D6922F0DD
:1018800080022A4302608A68C2620A6882629842C1
:1018900007D0A04205D0B84203D0604501D04045F2
:1018A00001D10969016301214161BDE8F0830000B4
:1018B000002C0140000400400008004000340140BA
:1018C000004001400044014000480140FEE702E0C2
:1018D00008C8121F08C1002AFAD1704770470020BB
:1018E00001E001C1121F002AFBD1704788B0FEF74A
:1018F00099FEFFF715FFFFF759FEFFF7ADFEFFF763
:10190000D3FE24482249022601600821C0E90116BD
:101910000025C0E9035685610562FEF74DFF00B161
:10192000FEE714221C4902A8FEF7A8FC002102A829
:1019300000F060F8194C2060012000F02BFEE06000
:10194000012000F027FE206104F10800CDE90060CD
:101950000023642212A1134801F032F8012803D1B8
:101960000021A06800F0B0FC0C480023001DCDE968
:10197000005064220CA1104801F022F8012803D184
:101980000121606800F0A0FC00F025F8FEE70000EF
:10199000005C004034010020CC2C00080000002036
:1019A00072657300D12000084C6564426C696E6BEF
:1019B00048616C6600000000852400080146002094
:1019C000842900D0C81C704710B500B9012000F070
:1019D000F5FB002010BD10B500F0EAFC002010BDA2
:1019E00010B501F019F8012803D0BDE8104000F04F
:1019F000BBBD10BD3EB504460D46B0F90800FFF76B
:101A0000DDFF02A9CDE90001208A2B4682B2D4E98C
:101A1000001000F0D5FF012801D000203EBD029843
:101A20003EBD00002DE9F041184C0F460546E66822
:101A30002068001D00F008FB38B9206890F82C10D1
:101A400001208840216981432161681C07D137B199
:101A50002168BDE8F0410E48091D00F02DBB20684B
:101A60003544B5424560216805D2A06BBDE8F04120
:101A7000091D00F009BB606B091D00F005FBA06AA1
:101A8000854200D2A562BDE8F08100004800002038
:101A9000F81100202DE9F041054600F01DFB2E4C09
:101AA000A068401CA06020682C4F10B1606940B352
:101AB0002DE02560A068012829D1002606EB8600CC
:101AC00007EB800000F0D2FA761C072EF6D32348ED
:101AD0008C3000F0CBFA2148A03000F0C7FA1F4844
:101AE000B43000F0C3FA1D48C83000F0BFFA1B48FC
:101AF000DC3000F0BBFA19488C3060631430A0630E
:101B000005E02068E96AC06A884200D82560606AFA
:101B1000401C6062E96A012022698840104320610C
:101B200001EB810007EB8000291D00F0C5FA00F0F1
:101B3000F3FA606900280CD02068E96AC06A88421C
:101B400007D207494FF080500860BFF34F8FBFF3B3
:101B50006F8FBDE8F0810000480000201C110020BC
:101B600004ED00E070B5114E114C17E000F054FC8C
:101B70003068B8B101F048F800F0AEFAF068C56816
:101B8000281D00F061FAA068401EA0606068401E39
:101B9000606000F0C1FA284600F055F8606800283F
:101BA000E4D170BD01F030F8F8E70000E411002046
:101BB0004800002030B4026C0B46002A0BD0C168EC
:101BC0001144C1604468A14201D30168C16030BCC6
:101BD0001846FEF753BB30BC70472DE9F041856BCA
:101BE000174604460026026C82B1C7B1E068FEF7D2
:101BF00045FBE168206C091AE1602268914202D23B
:101C00006168081AE060022F16D017E02068A8B9B2
:101C1000606800F073FF0646002060600EE0A06878
:101C2000FEF72CFB216CA0680844A0606168884224
:101C300004D32068A06001E005B16D1E6D1CA56392
:101C40003046BDE8F08110B50446006B00F078FA2C
:101C50002046BDE8104000F073BA000010484FF471
:101C60004061420706D0C01D0D4920F00700411A0F
:101C7000C1F540610B4A00230144C2E90003083961
:101C8000103A21F0070111604B600B600B1AC0E99C
:101C9000001393604FF000405360D0607047000025
:101CA0001C05002034000020074C4FF08056074DE3
:101CB000FFF758FF20680128FAD92E60BFF34F8F35
:101CC000BFF36F8FF4E700001C11002004ED00E06B
:101CD0002DE9F0479A46DDE9098481466FF0030358
:101CE000206B03EB82021044089D20F0070670076A
:101CF00007D0502080F31188BFF34F8FBFF36F8F51
:101D0000FEE723180A5C83F834200A5C12B1401CF9
:101D10001028F6D3002784F84370072D00D306253A
:101D2000E562C4E91157201D00F0ABF904F1180079
:101D300000F0A7F92461C5F107006462A061E764BF
:101D400084F8507052464946304600F00FF9206042
:101D5000B8F1000F01D0C8F80040BDE8F0870000DE
:101D600030B5114900E011460A688242FBD34B6846
:101D70005C18844203D140681844486008464368B0
:101D80001C18944209D1084C103C2468A24209D086
:101D900052681A4442600A6812680260814200D0A8
:101DA000086030BD0460F9E73400002010B5044637
:101DB00000F092F9A06B28B15FF0000400F0ACF9DC
:101DC000204610BD0124F9E70648416B096829B196
:101DD000416BC968C9684968816270474FF0FF313B
:101DE000FAE700004800002008484068401C4FF017
:101DF000500080F3118804D0BFF34F8FBFF36F8F73
:101E0000FEE7BFF34F8FBFF36F8FFEE73C0000206C
:101E10002DE9F041044600F05FF994F9455004F1D2
:101E2000240609E0606A48B1304600F0B3FE08B10C
:101E300000F0EAF96D1E6DB2002DF3DC4FF0FF36B5
:101E400084F8456000F068F900F046F994F94450D0
:101E500004F1100709E0206948B1384600F09AFE05
:101E600008B100F0D1F96D1E6DB2002DF3DC84F8DD
:101E70004460BDE8F04100F04FB900002DE9F041A9
:101E80000546002700F0C8FA314E306808B9FFF760
:101E9000E5FEF06805424BD1C5B3083568070ED0A2
:101EA00005F00700C0F108000544680707D050207E
:101EB00080F31188BFF34F8FBFF36F8FFEE72DB311
:101EC0007068854234D82248103001460C6801E021
:101ED00020460C466168A94202D221680029F7D148
:101EE00031688C4224D00768216801606068083737
:101EF000411B10290FD96019420708D0502080F3E8
:101F00001188BFF34F8FBFF36F8FFEE710E0416082
:101F10006560FFF725FF61687068401A7060B268FD
:101F2000904200D2B060F06801430020C4E9000193
:101F300000F06AFE780707D0502080F31188BFF3C5
:101F40004F8FBFF36F8FFEE73846BDE8F08100008A
:101F5000240000200449086818B10868826C521CEB
:101F600082640868704700004800002010B5031F15
:101F70004FF080741C601B1F21F001011960191FB4
:101F8000044B0B6014390A60091F6FF002024438D9
:101F90000A6010BDE91D00082DE9F041134C002333
:101FA0000A221946E06800F02BFB01281CD14FF4EF
:101FB0007A75284600F002F90D4F4FF4E0460122F1
:101FC00031463846FEF744FA284600F0F7F800227A
:101FD00031463846FEF73CFAE068BDE8F0410023A0
:101FE0001A46194600F006BCBDE8F081000000204A
:101FF00000100048124C134E4FF40F454FF47A77FF
:1020000000230A221946206900F0FAFA0128F7D1C4
:10201000012229463046FEF71BFA384600F0CEF87A
:10202000002229463046FEF713FA384600F0C6F87B
:1020300000231A461946206900F0DCFBE0E70000A7
:102040000000002000100048D0E9013201699A60C8
:10205000D0E901235A604A68824201D182684A600D
:10206000002202610868401E0860704700F1080104
:102070004FF0FF32C0E90112C1600161002101602F
:10208000704700210161704730B50B685A1C02D0BF
:1020900000F1080202E0026904E022465468256863
:1020A0009D42FAD953684B6099608A60516008611B
:1020B0000168491C016030BD42684A6093688B60CA
:1020C00093685960916008610168491C016070471C
:1020D000FFF762FFFFF78EFF502080F31188BFF3F8
:1020E0004F8FBFF36F8F0A494868401C4860012832
:1020F0000CD10848006810F0FF0F07D0502080F383
:102100001188BFF34F8FBFF36F8FFEE7704700005A
:102110003C00002004ED00E00849486828B1401E5A
:10212000486001D180F311887047502080F31188F6
:10213000BFF34F8FBFF36F8FFEE700003C0000201E
:1021400070B5002827D0144DA0F108046168E86834
:10215000014207D1502080F31188BFF34F8FBFF3A6
:102160006F8FFEE722683AB1502080F31188BFF3E9
:102170004F8FBFF36F8FFEE78143616000F04CF932
:1021800060686968084468602046FFF7E9FDBDE8BB
:10219000704000F039BD70BD2400002006484FF4A7
:1021A0007A710068B0FBF1F14FF0E020491E416107
:1021B00007210161704700002000002010B50200D7
:1021C00014D00F48006B38B1502080F31188BFF352
:1021D0004F8FBFF36F8FFEE700F01EF9002110460E
:1021E000FFF720FC00F010FD002807D105494FF053
:1021F00080500860BFF34F8FBFF36F8F10BD00009A
:102200004800002004ED00E001490120C86170474A
:102210004800002010B50C4650B109490968183132
:10222000FFF732FF2046BDE810400121FFF7FABB5F
:10223000502080F31188BFF34F8FBFF36F8FFEE7FD
:102240004800002070B5040039D01D4DE06A2968AF
:10225000C96A884233D2A069002804DB2868C06AB2
:10226000C0F10700A061E16A164E01EB81016069CF
:1022700006EB810188421FD1201DFFF7E5FE0121F9
:1022800050B9E06A00EB800256F8222022B92A6990
:1022900001FA00F082432A612868C06AE0622A6974
:1022A00081401143296100EB800006EB8000211D75
:1022B000BDE87040FFF700BF2868C06AE06270BDEB
:1022C000480000201C1100202DE9F04100270E4697
:1022D0000446072907D3502080F31188BFF34F8F9E
:1022E000BFF36F8FFEE7FFF7F7FE254D04B92C68AB
:1022F000606CB0423FD02968864206D98C4207D034
:102300002968C96AB14202D902E08C4200D1012792
:10231000E16A8846884200D1E6626664A0690028C6
:1023200002DBC6F10700A061164E08EB8800616968
:1023300006EB8000814215D1201DFFF785FE0121AB
:1023400020B92A6901FA08F082432A61E06A2A6901
:1023500081401143296100EB800006EB8000211DC4
:10236000FFF7AAFE3FB108494FF080500860BFF365
:102370004F8FBFF36F8FBDE8F041FFF7CDBE000078
:10238000480000201C11002004ED00E028B107499E
:102390000A6A0260C96841607047502080F3118862
:1023A000BFF34F8FBFF36F8FFEE7000048000020A0
:1023B0001CB515480024CDE900402346802213A116
:1023C000144800F0FDFA012809D0401C1AD1502011
:1023D00080F31188BFF34F8FBFF36F8FFEE750205C
:1023E00080F31188BFF34F8FBFF36F8F06484FF014
:1023F000FF312C38816201214161C460BDE81C407D
:1024000000F042B81CBD00007400002049444C4557
:1024100000000000A91C00080248016B491C016370
:1024200070470000480000201448016B11B10121E1
:10243000C16170470021C1610169B1FA81F1C1F147
:102440001F0101EB81020E4951F822306BB101EB03
:10245000820101F108034A6852684A609A4201D138
:1024600052684A60D16801607047502080F311883B
:10247000BFF34F8FBFF36F8FFEE7000048000020CF
:102480001C110020FFF7B6FD1CB532480168324A26
:10249000914207D1502080F31188BFF34F8FBFF3D3
:1024A0006F8FFEE700682C49491E884207D15020F3
:1024B00080F31188BFF34F8FBFF36F8FFEE727497B
:1024C00008780190FF20087008788DF800009DF8CA
:1024D00000009DF8002000F0F000904207D050204E
:1024E00080F31188BFF34F8FBFF36F8FFEE79DF826
:1024F00000001B4A00F0500010700720906005E0BB
:102500009DF800305B008DF80030401E9DF80030D3
:102510001B06F5D4000200F4E0609060019808709A
:102520000C482030016841F470010160016841F0FD
:1025300070410160FFF732FE00205060FDF74EFE53
:102540000848016841F040410160FDF737FE002076
:102550001CBD000000ED00E071C20F4100E400E08E
:102560003C00002034EF00E010B5502080F31188CB
:10257000BFF34F8FBFF36F8F00F05CFA18B10449BF
:102580004FF080500860002080F3118810BD0000DB
:1025900004ED00E010B502460021012000F00CF827
:1025A000041E07D00021416001600B460A46C1604D
:1025B00000F020F9204610BD70B50E46050013D07E
:1025C000D6B105FB06F04830FFF758FC040009D0EF
:1025D00004F1480120468EB10160C0E90F56012187
:1025E00000F0C4F8204670BD502080F31188BFF37E
:1025F0004F8FBFF36F8FFEE70020E4E70060ECE74A
:102600002DE9FF4F002683B09B468A46040003D085
:10261000BAF1000F08D011E0502080F31188BFF309
:102620004F8FBFF36F8FFEE7206C38B1502080F3DF
:102630001188BFF34F8FBFF36F8FFEE700F0ECF907
:10264000DFF824814FF000094FF0805748B9059812
:1026500038B1502080F31188BFF34F8FBFF36F8FD5
:10266000FEE7FFF739FDA56B45B351462046E66806
:10267000FFF7A0FABBF1000F13D0E660606A50B11B
:1026800004F1240000F086FA28B1C8F80070BFF306
:102690004F8FBFF36F8FFFF73FFD012007B0BDE8FD
:1026A000F08F6D1EA563206810B9FFF753FC6060C2
:1026B00020690028EFD004F11000E3E7059808B185
:1026C0001EB106E0FFF728FD27E06846FFF75EFE33
:1026D0000126FFF721FDFFF79FFEFFF7FDFC94F9B0
:1026E0004400401C01D184F8449094F94500401CFA
:1026F00001D184F84590FFF70FFD05A9684600F069
:1027000029F9002820460AD0FFF782FB00F07CFA66
:102710002046FFF74BFB0028A3D00020BEE7FFF7C1
:1027200045FBD8B1206830B9FFF7D6FC6068FFF7E9
:1027300089FDFFF7F1FC04F124000599FFF76AFD1C
:102740002046FFF765FB00F05FFA002889D1C8F842
:102750000070BFF34F8FBFF36F8F82E72046FFF704
:1027600057FB00F051FA7CE704ED00E070B50D4630
:10277000040025D0FFF7B0FCD4E90F20216802FB4C
:10278000001161600021A1632168A1600A46D4E9BB
:102790000F01401E00FB0121E16021464FF0FF3098
:1027A00001F8440F487004F110008DB1FFF75EFC92
:1027B00004F12400FFF75AFCFFF7AEFC012070BDC6
:1027C000502080F31188BFF34F8FBFF36F8FFEE768
:1027D00021690029F0D000F0DDF90028ECD004498F
:1027E0004FF080500860BFF34F8FBFF36F8FE3E768
:1027F00004ED00E02DE9FF4782B01D468A464FF008
:102800000008040003D0BAF1000F08D011E05020F6
:1028100080F31188BFF34F8FBFF36F8FFEE7206CFB
:1028200038B1502080F31188BFF34F8FBFF36F8F03
:10283000FEE7022D0AD1E06B012807D0502080F37B
:102840001188BFF34F8FBFF36F8FFEE700F0E4F8FE
:102850003F4F4FF000094FF0805648B9049838B107
:10286000502080F31188BFF34F8FBFF36F8FFEE7C7
:10287000FFF732FCA06BE16B884207D3022D05D035
:102880000498D0B1B8F1000F1AD01EE02A46514684
:102890002046FFF7A2F9616A19B104F1240000F0A3
:1028A00079F920B13E60BFF34F8FBFF36F8FFFF711
:1028B00033FC012006B0BDE8F087FFF72DFC22E0D5
:1028C0006846FFF763FD4FF00108FFF725FCFFF7AF
:1028D000A3FDFFF701FC94F94400401C01D184F8EA
:1028E000449094F94500401C01D184F84590FFF7CD
:1028F00013FC04A9684600F02DF830B12046FFF71C
:1029000087FA00F081F90020D4E7FFF7E5FBA06B20
:10291000E16B884213D1FFF7FFFB04F1100004992B
:10292000FFF778FC2046FFF773FA00F06DF90028F6
:102930009ED13E60BFF34F8FBFF36F8F98E7FFF7D5
:10294000EBFB2046FFF764FA00F05EF990E7000029
:1029500004ED00E070B50D46040019D005B3FFF793
:10296000BBFB164AD1682868431C0FD02368126A43
:10297000934202D062688A421AD96268891A8142F7
:1029800016D2401A28602046FFF700FD002410E010
:10299000502080F31188BFF34F8FBFF36F8FFEE796
:1029A000502080F31188BFF34F8FBFF36F8FFEE786
:1029B0000124FFF7B1FB204670BD00004800002055
:1029C0002DE9FF5F8346DDE90E87994616468A4664
:1029D0009000FFF753FA05001AD05420FFF74EFA83
:1029E000040012D025630021CDE90241CDE9008722
:1029F0004B46324651465846FFF76AF92046FFF7E4
:102A000049F8012004B0BDE8F09F2846FFF798FB85
:102A10004FF0FF30F6E700000548416919B1006B3F
:102A200018B1002070470120704702207047000055
:102A3000480000202DE9F0412E4C0027206B40B1CA
:102A4000A069401CA061E06900B101273846BDE8DB
:102A5000F081E668761CE66013D1606B006838B1DF
:102A6000502080F31188BFF34F8FBFF36F8FFEE7C5
:102A7000606BA16B6163A063206A401C2062FFF75A
:102A8000A3F9A06ADFF87080864209D3606B006802
:102A900080B1606BC068C568686886420DD2A0626C
:102AA0002068C06A00EB800158F821000128CAD9CB
:102AB0000127C8E74FF0FF30F1E7281DFFF7C4FA00
:102AC000A86A18B105F11800FFF7BEFAE86A0121FB
:102AD000226981401143216100EB800108EB8100F4
:102AE000291DFFF7E9FAE86A2168C96A8842CDD34F
:102AF0000127CBE7480000201C11002070B504001E
:102B00004FF0000140D0214D2868844207D050206A
:102B100080F31188BFF34F8FBFF36F8FFEE7A06C78
:102B200038B1401EA064636CE26A9A422CD040B176
:102B30002AE0502080F31188BFF34F8FBFF36F8FCF
:102B4000FEE7201DFFF780FA114A012150B9E06A23
:102B500000EB800352F8233023B92B6901FA00F00F
:102B600083432B61606CE062C0F10700A061E06A02
:102B70002B6981401943296100EB800002EB800042
:102B8000211DFFF799FA0121084670BD4800002079
:102B90001C1100202DE9F041C068C468ACB104F1FB
:102BA00018000746FFF750FA154D286B0126A0B113
:102BB00039461448FFF780FAE06A2968C96A8842F2
:102BC0001CD90120EE61BDE8F081502080F311880E
:102BD000BFF34F8FBFF36F8FFEE7201DFFF734FA6F
:102BE000E16A2A6906FA01F01043286101EB8100CD
:102BF0000449B43901EB8000211DDBE70020E2E746
:102C000048000020D01100202DE9F0472C4D002471
:102C10002746286B38B1FFF75FFA286B401E286300
:102C2000286B40B146E0502080F31188BFF34F8FEE
:102C3000BFF36F8FFEE7A968224E0120D1B3A6F142
:102C4000B40980463068E8B1F068C46804F118003F
:102C5000FFF7FAF9201DFFF7F7F9E06A2A6908FA89
:102C600000F11143296100EB800109EB8100211D76
:102C7000FFF722FAE06A2968C96A8842E2D3C5F8F8
:102C80001C80DFE70CB1FFF79FF8AC6944B1464602
:102C9000FFF7D0FE00B1EE61641EF9D10020A861FB
:102CA000E86938B10849012738070860BFF34F8F3A
:102CB000BFF36F8FFFF730FA3846BDE8F0870000AA
:102CC00048000020D011002004ED00E0182D00087D
:102CD0001517000800000000000000008000000040
:102CE00002030405060708090A0B0C0D0E0F10104D
:102CF0000102030405060708090A0B0C0D0E0F104C
:102D0000000000000000000001020304060708099B
:102D1000000000000102030464656661756C745470
:102D200061736B00442D0008000000208400000047
:102D3000CE180008C82D0008840000208C15000063
:102D4000DE18000800000000000000000000000085
:102D50000000000000000000010000001000000062
:102D60000000000000127A000000000000000000D7
:102D70000000000000000000000000000000000053
:102D800000000000AAAAAAAA00000000000000009B
:102D90000000000000000000000000000000000033
:102DA0000000000000000000000000000000000023
:102DB0000000000000000000000000000000000013
:082DC00000000000000000000B
:040000050800018965
:00000001FF
