:020000040800F2
:10000000B01D00205D020008971000089310000842
:10001000951000088D030008F11100080000000091
:100020000000000000000000000000009D0100082A
:100030008F03000800000000F9010008A11000086B
:1000400077020008770200087702000877020008AC
:10005000770200087702000877020008770200089C
:10006000770200087702000877020008770200088C
:10007000770200087702000877020008770200087C
:10008000770200087702000877020008770200086C
:10009000770200087702000877020008770200085C
:1000A000770200083511000877020008770200087F
:1000B000770200087702000877020008770200083C
:1000C000770200087702000877020008770200082C
:1000D000770200087702000877020008770200081C
:1000E000770200087702000877020008770200080C
:1000F00077020008770200087702000877020008FC
:10010000000000000000000000000000770200086E
:1001100077020008770200087702000877020008DB
:1001200077020008770200087702000877020008CB
:1001300077020008770200080000000000000000BD
:10014000770200087702000877020008000000002C
:10015000000000000000000000000000000000009F
:10016000000000000000000077020008770200088D
:1001700077020008000000000000000000000000FE
:100180000000000077020008DFF80CD000F0ECF867
:1001900000480047ED120008B01D00202C4B1968E4
:1001A0000868B0E8F04F80F30988BFF36F8F4FF015
:1001B000000080F3118870470000000008480068C4
:1001C000006880F308884FF0000080F3148862B65E
:1001D00061B6BFF34F8FBFF36F8F00DF00BF00BF6B
:1001E00008ED00E0DFF80C00016841F470010160E7
:1001F000704700BF88ED00E0EFF30980BFF36F8F19
:10020000134B1A681EF0100F08BF20ED108A20E96A
:10021000F04F106009B44FF0500080F31188BFF325
:100220004F8FBFF36F8F02F05BF84FF0000080F349
:10023000118809BC19680868B0E8F04F1EF0100F6B
:1002400008BFB0EC108A80F30988BFF36F8F704746
:1002500020000020EFF3058070470000064880472B
:1002600006480047FEE7FEE7FEE7FEE7FEE7FEE79B
:10027000FEE7FEE7FEE7FEE7191100088901000826
:100280002DE9F05F0546002092469B4688460646CB
:10029000814640241BE0284641464746224600F05E
:1002A00020F853465A46C01A914110D311461846B9
:1002B000224600F04AF82D1A67EB01084F46224605
:1002C0000120002100F041F817EB00094E41201EEB
:1002D000A4F10104DFDC484631462A464346BDE826
:1002E000F09F202A04DB203A21FA02F00021704717
:1002F00021FA02F3D040C2F120029140084319468E
:10030000704740EA01039B0703D009E008C9121FA8
:1003100008C0042AFAD203E011F8013B00F8013BBF
:10032000521EF9D27047D2B201E000F8012B491EEB
:10033000FBD270470022F6E710B513460A46044682
:100340001946FFF7F0FF204610BD202A04DB203AB3
:1003500000FA02F1002070479140C2F1200320FA18
:1003600003F3194390407047064C074D06E0E068E0
:1003700040F0010394E8070098471034AC42F6D3EC
:10038000FFF706FFF42D0008142E0008FEE7704763
:100390002DE9F84FDFF864B100234FF0010C4FF066
:1003A000030A4FF00F090BF1040EA0E00CFA03F65C
:1003B000324072D04C68022C01D0122C0ED1DC08D5
:1003C00000EB8408D8F820405D07EF0E09FA07F526
:1003D000AC430D69BD402543C8F8205007685D0057
:1003E00091F804800AFA05F408F00308A74308FA14
:1003F00005F848EA0708C0F800804F68012F05D0CB
:10040000022F03D0112F01D0122F11D18768D1F8FC
:100410000C80A74308FA05F848EA0708C0F80880E6
:100420004768B7430E79C6F300169E403E434660C8
:10043000C668A6438C68AC403443C4604C68E40092
:1004400054D52F4CA56945F00105A561A46923F099
:10045000030504F0010400942A4C2E19B4689D078A
:100460002F0F09FA07F5AC43B0F1904F04D0264D99
:10047000A84203D1012512E0002510E0234DA84237
:1004800001D102250BE0224DA84201D1032506E04F
:10049000204DA84202D1042501E027E00525BD40FA
:1004A0002543B560DBF800405D464E689443F60393
:1004B00000D514432C60DEF8004075464E68944326
:1004C000B60300D514432C600C4D08352C684E68DB
:1004D0009443F60200D514432C60084D0C352C686B
:1004E0004E689443B60200D514432C605B1C0A6826
:1004F00032FA03F47FF45AAFBDE8F88F00040140EC
:1005000000100240000001400004004800080048BC
:10051000000C00480010004842690A4200D009045B
:10052000816170470AB18161704781627047000044
:100530000148806870470000100000200248816870
:10054000027811448160704710000020074810B500
:10055000016841F010010160032000F08BF80020D9
:1005600000F006F800F03EF8002010BD0020024028
:1005700000B5014687B00022192000F05BF8192071
:1005800000F04AF81348816941F400618161806993
:1005900005A900F400600690684600F021F900F01B
:1005A0003FF90D490D4AB0FBF1F10D48491E0260BB
:1005B000416040F2E7320021C0E90321816000F090
:1005C00064FC10B1012007B000BD054800F07AFCC2
:1005D000F9E700000010024040420F00002C0140EB
:1005E000980000200B4882B0816941F001018161CF
:1005F000816901F001010091C16941F08051C1613F
:10060000C069002200F0805000900F21901E02B0BF
:1006100000F010B800100240002809DB00F01F02B3
:10062000012191404009800000F1E020C0F8001154
:1006300070470000F0B40E4B1B680C46C3F3022356
:10064000C3F10705042D00D90425191D072901D27E
:10065000002300E0DB1E012606FA05F1491E2140B9
:1006600099409E40761E16403143F0BC00F0C1BD5B
:100670000CED00E0064900F0070208684FF6FF03A2
:10068000184040EA0220034A104308607047000007
:100690000CED00E00000FA052DE9F0470F460500DB
:1006A00069D04A4E306800F00700B84209D230687D
:1006B00020F0070038433060306800F00700B8428F
:1006C00059D12878424C800705D56068A96820F088
:1006D000F000084360602878C0073DD069680120B9
:1006E00001290DD0022923D05FF0020393FAA3F26F
:1006F000B2FA82F242F02002520904D0226803E0EA
:100700004FF40033F2E7626A93FAA3F3B3FA83F388
:1007100003F01F03984002422DD0606820F00300D0
:1007200008436060FFF704FF804641F288390CE01F
:100730004FF00073DAE700BFFFF7FAFEA0EB080105
:10074000494502D90320BDE8F0876068696800F078
:100750000C00B0EB810FEFD1306800F00700B84219
:100760000BD9306820F0070038433060306800F063
:100770000700B84201D00120E5E72878400705D5F9
:100780006068E96820F4E06008436060287800074A
:1007900006D56068296920F4605040EAC1006060B5
:1007A00000F056F86168F02292FAA2F201F0F0012E
:1007B000B2FA82F2D140074A515CC840064908604B
:1007C00006480068FFF7D4FE0020BCE70020024086
:1007D00000100240BC2D00081C0000201400002066
:1007E0000F2202600C4A536803F00303436053680E
:1007F00003F0F0038360536803F4E063C36052685E
:100800004FF4E06303EAD20202610448006800F09A
:1008100007000860704700000010024000200240FE
:1008200008480949006849684FF4605292FAA2F2F8
:1008300001F46051B2FA82F2D140044A515CC840DE
:10084000704700001C00002000100240CC2D000862
:10085000164A10B55168164801F00C03042B20D03D
:10086000082B1ED14FF4701494FAA4F401F4701301
:10087000B4FA84F4E3400F4CD26AE45C0F2393FA99
:10088000A3F302F00F02B3FA83F3DA40094B1033FB
:10089000C9039A5C06D500231946FFF7F1FCA0FBBB
:1008A000040110BD0448A4FB000110BD001002406B
:1008B00000127A009C2D000800093D002DE9F84F38
:1008C000050071D02878FC4EC0074FF0010425D0F8
:1008D00070686704C0F38100012807D07068C0F316
:1008E000810002281BD17068C00318D597FAA7F0C1
:1008F000B0FA80F040F02000400901D0306800E0FC
:10090000706A97FAA7F1B1FA81F101F01F0104FAB8
:1009100001F1084265D068680028D2D061E06868BB
:10092000B0F5803F0BD010B1B0F5A02F17D03068D4
:1009300020F480303060306820F4802002E030689D
:1009400040F480303060F06AA96820F00F0008435E
:10095000F062686820B3FFF7EBFD80460AE030687C
:1009600040F480203060EAE7FFF7E2FDA0EB0800EA
:10097000642871D897FAA7F0B0FA80F040F0200010
:10098000400901D0306800E0706A97FAA7F1B1FA27
:1009900081F101F01F0104FA01F10842E4D020E0E6
:1009A000FFF7C6FD804607E0C2E000BFFFF7C0FDCD
:1009B000A0EB08006428DCD897FAA7F0B0FA80F022
:1009C00040F02000400901D0306800E0706A97FADA
:1009D000A7F1B1FA81F101F01F0104FA01F1084217
:1009E000E4D12878DFF8D48280074FF0000A4FF076
:1009F000020730D570684FF0F80B10F00C0F07D0DD
:100A00007068C0F38100022827D17068C00324D425
:100A100097FAA7F0B0FA80F040F02000400901D02A
:100A2000306800E0706A97FAA7F1B1FA81F101F03D
:100A30001F0104FA01F1084202D02869012877D188
:100A400030689BFAABF220F0F8016869B2FA82F2E2
:100A50009040014331605AE064E1286988B394FA18
:100A6000A4F0B0FA80F048F82040FFF761FD81461D
:100A700006E000BFFFF75CFDA0EB090002289AD852
:100A800097FAA7F0B0FA80F040F02000400901D0BA
:100A9000306800E0706A97FAA7F1B1FA81F101F0CD
:100AA0001F0104FA01F10842E4D030689BFAABF26E
:100AB0006969B2FA82F220F0F80091400843306090
:100AC00025E0FFE794FAA4F0B0FA80F048F820A0FF
:100AD000FFF72EFD814605E0FFF72AFDA0EB090098
:100AE0000228CCD897FAA7F0B0FA80F040F02000A6
:100AF000400901D0306800E0706A97FAA7F1B1FAB6
:100B000081F101F01F0104FA01F10842E4D12878D3
:100B100000076CD5A869A8B394FAA4F0B0FA80F0E5
:100B200008EB8000C0F88044FFF702FD814607E033
:100B3000A4E100BFFFF7FCFCA0EB090002289ED84F
:100B400097FAA7F0B0FA80F040F06000B4EB501FC5
:100B500001D130680BE097FAA7F0B0FA80F040F0CE
:100B60006000B7EB501F01D1306A00E0706A97FA5D
:100B7000A7F1B1FA81F101F01F0104FA01F210426C
:100B8000D8D034E0FFE794FAA4F1B1FA81F108EB90
:100B90008101C1F880A4FFF7CBFC814606E000BFCD
:100BA000FFF7C6FCA0EB090002289AD897FAA7F035
:100BB000B0FA80F040F06000B4EB501F01D1306813
:100BC0000BE097FAA7F0B0FA80F040F06000B7EBC6
:100BD000501F01D1306A00E0706A97FAA7F1B1FAAC
:100BE00081F101F01F0104FA01F21042D8D12878F6
:100BF000400768D5F0694FF00009C00009D4F069DA
:100C000040F08050F061F0694FF0010900F0805031
:100C100000902B480168C90512D4016841F4807125
:100C20000160FFF785FC834606E000BFFFF780FC0C
:100C3000A0EB0B00642875D821480068C005F5D5E5
:100C4000E86801280AD008B1052811D0306A20F0E0
:100C500001003062306A20F0040002E0306A40F0A7
:100C600001003062E86868B3FFF762FC83460DE07C
:100C7000306A40F004003062F0E700BFFFF758FC34
:100C8000A0EB0B0141F2883081424BD897FAA7F0D4
:100C9000B0FA80F040F04000B4EB501F01D1306852
:100CA00013E097FAA7F0B0FA80F040F04000B7EBFD
:100CB000501F09D1306A08E0001002400000424293
:100CC000007000400CE040E0706A97FAA7F1B1FABA
:100CD00081F101F01F0104FA01F21042CED02DE0A3
:100CE000FFF726FC834607E0FFF722FCA0EB0B0191
:100CF00041F28830814215D897FAA7F0B0FA80F017
:100D000040F04000B4EB501F01D130680CE097FA7E
:100D1000A7F0B0FA80F040F04000B7EB501F02D1CE
:100D2000306A01E083E0706A97FAA7F1B1FA81F1C5
:100D300001F01F0104FA01F21042D5D1B9F1000F00
:100D400003D0F06920F08050F061E86980B37168E9
:100D5000C1F38101022977D04FF080714F00022842
:100D6000504609D091FAA1F1B1FA81F148F8210079
:100D7000FFF7DEFB05465DE0894691FAA1F1B1FA85
:100D800081F1C24648F82100FFF7D2FB804605E01A
:100D9000FFF7CEFBA0EB0800022848D897FAA7F08F
:100DA000B0FA80F040F02000400902D0306801E045
:100DB00066E0706A97FAA7F1B1FA81F101F01F01BC
:100DC00004FA01F10842E3D1D5E90810084371683B
:100DD00021F474110843706099FAA9F0B0FA80F018
:100DE0004AF82040FFF7A4FB054604E0FFF7A0FB0C
:100DF000401B02281BD897FAA7F0B0FA80F040F009
:100E00002000400901D0306800E0706A97FAA7F12D
:100E1000B1FA81F101F01F0104FA01F10842E5D0B5
:100E20002EE000BFFFF784FB401B022802D90320FD
:100E3000BDE8F88F97FAA7F0B0FA80F040F02000F4
:100E4000400902D0306801E00BE0706A97FAA7F120
:100E5000B1FA81F101F01F0104FA01F10842E1D178
:100E60000EE00128E4D070682A6A00F480319142D3
:100E700004D1696A00F47010884201D00120D7E7DC
:100E80000020D5E770477047704710B5040003D0C5
:100E900094F83D0010B107E0012010BD002084F857
:100EA0003C00204600F00CF8022084F83D00211D93
:100EB000206800F045F9012084F83D00002010BDB5
:100EC000704700000168CA6842F00102CA60016808
:100ED0008868064A1040062806D0B0F5803F03D047
:100EE000086840F00100086000207047070001001A
:100EF000704770B50446006801694FF00005C943AA
:100F0000890715D4C168C943890711D4E91E016155
:100F100001202077206880698007204602D0FFF7F3
:100F2000E7FF04E000F0A7F8204600F0A5F82577D9
:100F300020680169C943490717D4C168C9434907F3
:100F400013D46FF0040101610220207720688069CA
:100F500010F4407F204602D0FFF7CAFF04E000F003
:100F60008AF8204600F088F8257720680169C9438F
:100F7000090716D4C168C943090712D46FF00801E4
:100F80000161042020772068C0698007204602D0D4
:100F9000FFF7AEFF04E000F06EF8204600F06CF8BA
:100FA000257720680169C943C90617D4C168C943B8
:100FB000C90613D46FF01001016108202077206862
:100FC000C06910F4407F204602D0FFF791FF04E093
:100FD00000F051F8204600F04FF8257720680169AD
:100FE000C943C90708D1C168C943C90704D1891ECB
:100FF0000161204600F042F820680169C9430906F2
:1010000009D4C168C943090605D46FF080010161A4
:101010002046FFF738FF20680169C943C90509D494
:10102000C168C943090605D46FF480710161204687
:10103000FFF728FF20680169C943490609D4C16840
:10104000C943490605D46FF040010161204600F014
:101050001FF820680169C94389060BD4C168C943D8
:10106000890607D46FF0200101612046BDE8704079
:10107000FFF70ABF70BD7047704700000068034962
:10108000884201D1FFF75ABA70470000002C014096
:101090007047FEE7FEE77047012000F085F9FBE7A7
:1010A00010B5502080F31188BFF34F8FBFF36F8FBF
:1010B00001F08AFC18B104494FF08050086000200C
:1010C00080F3118810BD000004ED00E030B58FB052
:1010D00028216846FFF72EF914210AA8FFF72AF9FC
:1010E00002250120049000951020059000244FF463
:1010F000C010CDE9084007956846FFF7DFFB0F20D9
:101100000A90CDE90B540D9401210AA80E94FFF723
:10111000C3FA0FB030BD00000548016841F470010A
:10112000016003494FF0006080390860704700009B
:1011300088ED00E00148FFF7DCBE000098000020C9
:101140002DE9F0430268234B234D244E244C4FF0ED
:101150008049984207D0484505D0A84203D0B04204
:1011600001D0A04203D122F070074A683A431D4FD4
:10117000DFF874C0DFF8748098420DD048450BD07A
:10118000A84209D0B04207D0A04205D0B84203D04F
:10119000604501D0404503D122F44075CA682A4316
:1011A0004D6922F080022A4302608A68C2620A689E
:1011B0008262984207D0A04205D0B84203D0604571
:1011C00001D0404501D10969016301214161BDE8B8
:1011D000F0830000002C01400004004000080040A3
:1011E00000340140004001400044014000480140FB
:1011F000FEE70907090E002804DB00F1E02080F873
:101200000014704700F00F0000F1E02080F8141D7A
:10121000704702E008C8121F08C1002AFAD17047BF
:101220007047002001E001C1121F002AFBD1704766
:10123000124F134D064600244FF47A78641CE4B232
:10124000B1B23846FFF768F9062C04D00C2C07D051
:10125000182C0ED109E0A86800F06EF9E86806E0E5
:101260001821686800F048F903E0AFF23B0000F095
:1012700063F9404600F098F8E0E7000000100048ED
:101280000000002070B5040005D0164E306884427E
:1012900009D1002070BD502080F31188BFF34F8F1B
:1012A000BFF36F8FFEE700F0F1FD656900F00EFE01
:1012B0007068854202D0B068854201D1022070BDBD
:1012C0000948854204D1A06A0028F7D1032070BDE7
:1012D00005481438854202D00DB1012070BD0420AC
:1012E00070BD000020000020C805002098B0FFF766
:1012F0002DF9FFF7EBFE142112A8FFF71BF8244885
:10130000416941F4001141614069224D00F400102F
:101310004FF470641790002221462846FFF702F927
:10132000012000211294CDE91301159112A928463C
:10133000FFF72EF800F052F8174A0021174800F086
:1013400089F8174C144A002120602432154800F017
:1013500081F811496060242248316846FEF7D1FFC8
:101360006A464FF400710F4800F074F80A49A06013
:1013700024226C3109A8FEF7C4FF09AA4FF40061CA
:10138000084800F067F8E06000F044F8FEE700006D
:1013900000100240001000480C2D000899100008B1
:1013A000000000203112000810B5EFF3058149B9A3
:1013B000EFF3108131B908490968022905D1EFF32B
:1013C000118111B16FF0050403E0002408B100F0B1
:1013D00031FE204610BD000070000020EFF30580B4
:1013E00058B9EFF3108040B909490868022801D0C4
:1013F00030B109E0EFF3118030B16FF005007047B4
:1014000001200860002070474FF0FF307047000057
:101410007000002010B5EFF3058060B9EFF3108085
:1014200048B90B490868022802D0012806D00BE011
:10143000EFF3118040B16FF0050010BD022008608D
:1014400000F002FF002010BD4FF0FF3010BD000083
:1014500070000020F0B585B04FEA01034FF00004A2
:10146000EFF305810394A1BBEFF3108189BB214900
:101470000968022902D1EFF3118151BB48B38026DC
:1014800018218DF8104004AD42B3176807B13D46EE
:1014900097691FB139467F1E382F02D21779FF078F
:1014A00002D0002005B0F0BD576907B1BE08D2F8E0
:1014B00008C0BCF1000F0DD0D4685C2C18D31269A1
:1014C0003AB137B18DE806103246294601F03DFAAF
:1014D00003900DE0D7685FB912694AB903AACDE954
:1014E0000012B2B2294601F003FA012800D0039499
:1014F0000398D7E77000002010B5EFF305824AB9D2
:10150000EFF3108232B90B4A1268022A05D1EFF3C9
:10151000118212B16FF005040AE018B1012901DB54
:10152000382902DD6FF0030402E0002400F032FEEF
:10153000204610BD7000002070B50546EFF3058011
:1015400048B9EFF3108030B90D480068022805D182
:10155000EFF3118010B16FF005040FE04DB1284694
:10156000FFF790FE042807D00024284600F088FDED
:1015700004E06FF0030401E06FF00204204670BD48
:10158000700000202DE9F041134C0F4605466669B6
:101590002068001D00F01CFC681C07D137B12168D1
:1015A000BDE8F0410D48091D00F063BC20683544DA
:1015B000B5424560216805D2A068BDE8F041091D2B
:1015C00000F03FBC6068091D00F03BFC206B8542C9
:1015D00000D22563BDE8F08120000020C80500206E
:1015E0002DE9F041054600F051FC2D4C2069401CCE
:1015F000206120682B4F10B1E06930B32BE02560EB
:101600002069012827D1002606EB860007EB800021
:1016100000F009FC761C382EF6D3234800F003FCBA
:101620002148143000F0FFFB1F48283000F0FBFB7E
:101630001D483C3000F0F7FB1B48503000F0F3FB36
:10164000194860601430A06005E02068E96AC06A4B
:10165000884200D82560E06A401CE0626864E86A5D
:10166000A169884200D9A06100EB800007EB8000EF
:10167000291D00F0FEFB00F029FCE06900280CD0D9
:101680002068E96AC06A884207D208494FF0805052
:101690000860BFF34F8FBFF36F8FBDE8F08100008C
:1016A00020000020180100207805002004ED00E053
:1016B00038B500F0EBFB104CA068C8B90F4800F03B
:1016C000B2FB0E48143000F0AEFB0C482060143022
:1016D00060600A4B00202833009003F15002102173
:1016E0000A2000F0A9FEA06010B105A100F06CFC7A
:1016F000BDE8384000F0EABB5C000020DC050020BB
:10170000546D72510000000030B4026C0B46002A88
:101710000BD0C1681144C1604468A14201D3016883
:10172000C16030BC1846FEF7ECBD30BC70472DE9F7
:10173000F041856B174604460026026C82B1C7B1A2
:10174000E068FEF7DEFDE168206C091AE1602268BE
:10175000914202D26168081AE060022F16D017E0A9
:101760002068A8B9606801F093F90646002060601F
:101770000EE0A068FEF7C5FD216CA0680844A060DB
:101780006168884204D32068A06001E005B16D1E45
:101790006D1CA5633046BDE8F08110B5044690F895
:1017A000590058B101280CD002280FD0502080F3E6
:1017B0001188BFF34F8FBFF36F8FFEE7206B00F0F0
:1017C00099FB2046BDE8104000F094BB10BD00001E
:1017D00010484FF44061420706D0C01D0D4920F06B
:1017E0000700411AC1F540610B4A00230144C2E9D8
:1017F00000030839103A21F0070111604B600B60BB
:101800000B1AC0E9001393604FF000405360D060A2
:1018100070470000AC0D002084000020154E164CCF
:10182000A6F29C474FF08058DFF8509012E000BFBE
:1018300000F02CFBF068C568281D00F0C9FA20698B
:10184000401E2061E068401EE06000F03FFB28463B
:10185000FFF7A3FFE0680028EAD13868012805D91E
:10186000C9F80080BFF34F8FBFF36F8F00F0DAFA33
:10187000F0E70000B40500202000002004ED00E0A7
:1018800070B51D46049C51B1C4F80020C4E90F0195
:101890000121204600F004FE84F84C5070BD246005
:1018A000F4E72DE9F0470E46DDE909841746824644
:1018B00091009946089DA522206BFEF734FD6FF03C
:1018C0000301206B01EB8701084420F0070778072C
:1018D00007D0502080F31188BFF34F8FBFF36F8F75
:1018E000FEE72218315C82F83410315C11B1401CE3
:1018F0001028F6D3002684F84360382D00D337250E
:10190000E562C4E91356201D00F098FA04F11800AE
:1019100000F094FA2461C5F138006462A061666544
:1019200084F858604A465146384600F03BFA206039
:10193000B8F1000F01D0C8F80040BDE8F087000002
:1019400030B5114900E011460A688242FBD34B686A
:101950005C18844203D140681844486008464368D4
:101960001C18944209D1084C103C2468A24209D0AA
:1019700052681A4442600A6812680260814200D0CC
:10198000086030BD0460F9E78400002070B50024D1
:1019900041600B4D0061914206D8D11A8269914293
:1019A00006D2011D686807E09A4203D2994201D32A
:1019B000012403E0011D286800F043FA204670BDB1
:1019C0005C00002010B5044600F060FAA06B28B15E
:1019D0005FF0000400F07AFA204610BD0124F9E718
:1019E00030B589B0304D55E00498002806DADDE9BD
:1019F0000601059A9047049800284BDB069C606915
:101A000010B1201D00F0E4F902A800F0B9F8024678
:101A100004980A283ED2DFE800F00505053D263788
:101A200005053D260598A169034601442046FFF7B8
:101A3000ADFF00B3616A20468847E069012829D1DB
:101A4000002000900598A1690023421819462046FD
:101A500001F028F978B9502080F31188BFF34F8F37
:101A6000BFF36F8FFEE70598A06128B18118134678
:101A70002046FFF78BFF0DE0502080F31188BFF365
:101A80004F8FBFF36F8FFEE794F82C0010B92046FC
:101A900000F030FA002204A9A86800F053FE0028E4
:101AA000A2D109B030BD00005C0000202DE9FC414E
:101AB0000F46054600F00CFC01A800F061F8044652
:101AC000019818B101F05CF8BDE8FC81224EAFB17D
:101AD00070680068A8B30027291B3A46B06800F078
:101AE00087FA01F04DF80028EED11C494FF08050E4
:101AF0000860BFF34F8FBFF36F8FE5E7A542EBD8C8
:101B000001F03EF830682746C068C468201D00F028
:101B10005FF9E069012810D1A0692B4641193A46C6
:101B20002046FFF733FF40B10020034601460090F6
:101B30002A46204601F0B6F820B1616A204688475F
:101B4000C2E707E0502080F31188BFF34F8FBFF347
:101B50006F8FFEE70127BFE75C00002004ED00E087
:101B600006484168096829B14168C968C968496877
:101B7000016370474FF0FF31FAE7000020000020BA
:101B800070B5054600F01AFF064E044630698442DF
:101B900003D200F009F8012000E000202860204670
:101BA000346170BD5C000020F8B5194D1FE0C068BD
:101BB000C4680668201D00F00BF9616A204688475A
:101BC000E069012813D1A0693044B04206D92461EC
:101BD0006060211D286800F034F908E00020034609
:101BE000014600903246204601F05CF838B1286882
:101BF00001680029DBD16968C5E90010F8BD5020F3
:101C000080F31188BFF34F8FBFF36F8FFEE70000A3
:101C10005C00002008484068401C4FF0500080F3F2
:101C2000118804D0BFF34F8FBFF36F8FFEE7BFF370
:101C30004F8FBFF36F8FFEE78C000020074C2068AA
:101C4000016841B1C0680021D0F80000FFF72EFF05
:101C5000FFF7C6FEF3E701210020F7E75C00002054
:101C60002DE9F041044600F011F994F9455004F1D2
:101C7000240609E0606A48B1304600F049FF08B127
:101C800000F04EFA6D1E6DB2002DF3DC4FF0FF3602
:101C900084F8456000F01AF900F0F8F894F944501F
:101CA00004F1100709E0206948B1384600F030FF20
:101CB00008B100F035FA6D1E6DB2002DF3DC84F82A
:101CC0004460BDE8F04100F001B900002DE9F041A9
:101CD0000546002700F0FCFA314E306808B9FFF7DE
:101CE00077FDF06805424BD1C5B3083568070ED0C3
:101CF00005F00700C0F108000544680707D0502030
:101D000080F31188BFF34F8FBFF36F8FFEE72DB3C2
:101D10007068854234D82248103001460C6801E0D2
:101D200020460C466168A94202D221680029F7D1F9
:101D300031688C4224D007682168016060680837E8
:101D4000411B10290FD96019420708D0502080F399
:101D50001188BFF34F8FBFF36F8FFEE710E0416034
:101D60006560FFF7EDFD61687068401A7060B268E9
:101D7000904200D2B060F06801430020C4E9000145
:101D800000F0FEFE780707D0502080F31188BFF3E3
:101D90004F8FBFF36F8FFEE73846BDE8F08100003C
:101DA0007400002010B5031F4FF080741C601B1FCF
:101DB00021F001011960191F044B0B6014390A60EE
:101DC000091F6FF0020244380A6010BD151C00089C
:101DD000D0E9013201699A60D0E901235A604A686A
:101DE000824201D182684A60002202610868401E76
:101DF0000860086870470000034B036003F15C0053
:101E00000860802010607047F4060020044B0360D7
:101E100003F15C0008604FF48070106070470000B0
:101E200050090020704700F108014FF0FF32C0E96F
:101E30000112C16001610021016070470021016150
:101E4000704730B50B685A1C02D000F1080202E05E
:101E5000026904E02246546825689D42FAD9536815
:101E60004B6099608A60516008610168491C01609B
:101E700030BD42684A6093688B6093685960916096
:101E800008610168491C016070470000502080F320
:101E90001188BFF34F8FBFF36F8F0A494868401C0A
:101EA000486001280CD10848006810F0FF0F07D0E7
:101EB000502080F31188BFF34F8FBFF36F8FFEE781
:101EC000704700008C00002004ED00E008494868DD
:101ED00028B1401E486001D180F31188704750201E
:101EE00080F31188BFF34F8FBFF36F8FFEE70000C1
:101EF0008C00002070B5002827D0144DA0F10804F4
:101F00006168E868014207D1502080F31188BFF36F
:101F10004F8FBFF36F8FFEE722683AB1502080F3F6
:101F20001188BFF34F8FBFF36F8FFEE7814361606E
:101F300000F0CEF960686968084468602046FFF7E1
:101F4000FFFCBDE8704000F01BBE70BD74000020B7
:101F50004FF0E02000210161816105494FF47A7260
:101F60000968B1FBF2F1491E416107210161704727
:101F70001C00002010B5FEF76DF9114910280ED392
:101F800000F1E02090F8F0030A78904207D2502048
:101F900080F31188BFF34F8FBFF36F8FFEE70948BF
:101FA0000068896800F4E060884207D9502080F317
:101FB0001188BFF34F8FBFF36F8FFEE710BD000096
:101FC0008C0000200CED00E010B5084B002200BF93
:101FD00053F832401CB1521C082AF9D310BD43F803
:101FE000321003EBC201486010BD0000D800002091
:101FF00070B515460E460446FFF748FF94F94410A5
:102000000020491C01D184F8440094F94510491C72
:1020100001D184F84500FFF759FFA06B28B92A4683
:10202000314604F1240000F099F82046BDE87040E4
:10203000FFF716BE10B5020014D00F48806B38B100
:10204000502080F31188BFF34F8FBFF36F8FFEE7EF
:1020500000F03EF900211046FFF794FA00F090FDE1
:10206000002807D105494FF080500860BFF34F8F1B
:10207000BFF36F8F10BD00002000002004ED00E0D2
:1020800070B50546FFF702FF1E4C05B92568281DEF
:10209000FFF79EFEA86A18B105F11800FFF798FE39
:1020A000E06A401CE0622068854207D1291D16487D
:1020B000FFF7DFFEE068401CE06007E02069401E9B
:1020C00020612846FFF769FBFFF74AFDFFF7FEFE98
:1020D000E069002814D02068854211D1A06B38B186
:1020E000502080F31188BFF34F8FBFF36F8FFEE74F
:1020F00006494FF080500860BFF34F8FBFF36F8FDA
:1021000070BD000020000020B405002004ED00E0B8
:1021100002498A6A026049694160704720000020D4
:1021200001490120486270472000002010B50C468C
:1021300050B1094909681831FFF783FE2046BDE810
:1021400010400121FFF71EBA502080F31188BFF321
:102150004F8FBFF36F8FFEE72000002070B514464D
:102160000D4668B10A4909681831FFF782FE0CB1C3
:102170004FF0FF3521462846BDE87040FFF702BA10
:10218000502080F31188BFF34F8FBFF36F8FFEE7AE
:10219000200000202DE9F04100270D460446382993
:1021A00007D3502080F31188BFF34F8FBFF36F8F99
:1021B000FEE7FFF76BFE214E04B93468E16CA942DB
:1021C00037D030688D4206D9844207D03068C06A63
:1021D000A84202D902E0844200D10127E06A81428C
:1021E00000D1E562E564A169002902DBC5F138018F
:1021F000A161134D00EB8000616905EB8000814215
:102200000ED1201DFFF7E4FDE06AB169884200D9D4
:10221000B06100EB800005EB8000211DFFF729FE77
:102220003FB108494FF080500860BFF34F8FBFF3B4
:102230006F8FBDE8F041FFF749BE0000200000208D
:102240001801002004ED00E030B587B000240394AD
:1022500005AA04A903A80494FFF7CEFDDDE9030154
:102260000094CDE90110002315A11748059A00F04C
:102270006CFB164D002868631FD000F0E3FC0128BA
:1022800009D0401C19D1502080F31188BFF34F8F23
:10229000BFF36F8FFEE7502080F31188BFF34F8F9D
:1022A000BFF36F8F4FF0FF3028630120E8616C614E
:1022B00007B0BDE8304000F045B807B030BD0000C1
:1022C00049444C45000000001D1800082000002073
:1022D0000248816B491C8163704700002000002088
:1022E000164810B5816B11B10121416210BD00216A
:1022F00041628169124A01E0B9B1491E01EB8103D3
:1023000052F82330002BF7D001EB810302EB83025C
:1023100002F1080453685B685360A34201D15B6813
:102320005360DA680260816110BD502080F311882B
:10233000BFF34F8FBFF36F8FFEE700002000002038
:10234000180100201CB537480168374A914207D16F
:10235000502080F31188BFF34F8FBFF36F8FFEE7DC
:1023600000683149491E884207D1502080F3118806
:10237000BFF34F8FBFF36F8FFEE72C4908780190B2
:10238000FF20087008788DF800009DF800009DF887
:10239000002000F0F000904207D0502080F3118818
:1023A000BFF34F8FBFF36F8FFEE79DF80000204B08
:1023B00000F0500018700720986005E09DF800209C
:1023C00052008DF80020401E9DF800201206F5D422
:1023D0009860032807D0502080F31188BFF34F8FF7
:1023E000BFF36F8FFEE74FF440709860019808705C
:1023F0000C482030016841F470010160016841F02F
:1024000070410160FFF7A4FD00205860FDF7EAFE6F
:102410000848016841F040410160FDF7CFFE00200F
:102420001CBD000000ED00E071C20F4100E400E0BF
:102430008C00002034EF00E038B5049D18B153B192
:10244000CAB181B120E0502080F31188BFF34F8FD3
:10245000BFF36F8FFEE7502080F31188BFF34F8FDB
:10246000BFF36F8FFEE7502080F31188BFF34F8FCB
:10247000BFF36F8FFEE739B1502080F31188BFF3AF
:102480004F8FBFF36F8FFEE750241C46012384F863
:1024900046302B460094FFF7F3F9204638BD000084
:1024A00070B50D46040025D0FFF7F0FCD4E90F20ED
:1024B000216802FB001161600021A1632168A16015
:1024C0000A46D4E90F01401E00FB0121E1602146CC
:1024D0004FF0FF3001F8440F487004F110008DB147
:1024E000FFF7A1FC04F12400FFF79DFCFFF7EEFCD1
:1024F000012070BD502080F31188BFF34F8FBFF3D0
:102500006F8FFEE721690029F0D000F001FB002861
:10251000ECD004494FF080500860BFF34F8FBFF3F9
:102520006F8FE3E704ED00E02DE9FF4782B01D4621
:102530008A464FF00008040003D0BAF1000F08D01B
:1025400011E0502080F31188BFF34F8FBFF36F8FDE
:10255000FEE7206C38B1502080F31188BFF34F8F15
:10256000BFF36F8FFEE7022D0AD1E06B012807D081
:10257000502080F31188BFF34F8FBFF36F8FFEE7BA
:1025800000F00EFA3F4F4FF000094FF0805648B967
:10259000049838B1502080F31188BFF34F8FBFF3F8
:1025A0006F8FFEE7FFF772FCA06BE16B884207D3E9
:1025B000022D05D00498D0B1B8F1000F1AD01EE05A
:1025C0002A4651462046FFF7B2F8616A19B104F174
:1025D000240000F09DFA20B13E60BFF34F8FBFF39F
:1025E0006F8FFFF773FC012006B0BDE8F087FFF79F
:1025F0006DFC22E06846FFF78BFD4FF00108FFF706
:1026000065FCFFF765FEFFF741FC94F94400401CB0
:1026100001D184F8449094F94500401C01D184F81C
:102620004590FFF753FC04A9684600F027F930B144
:102630002046FFF715FB00F0A3FA0020D4E7FFF7D0
:1026400025FCA06BE16B884213D1FFF73FFC04F13E
:1026500010000499FFF76AFD2046FFF701FB00F028
:102660008FFA00289ED13E60BFF34F8FBFF36F8F6C
:1026700098E7FFF72BFC2046FFF7F2FA00F080FA0C
:1026800090E7000004ED00E02DE9F0471F4690467A
:102690008946040003D0B9F1000F08D011E05020A2
:1026A00080F31188BFF34F8FBFF36F8FFEE7206C6D
:1026B00038B1502080F31188BFF34F8FBFF36F8F75
:1026C000FEE7022F0AD1E06B012807D0502080F3EB
:1026D0001188BFF34F8FBFF36F8FFEE7FFF74AFC00
:1026E0005020EFF3118680F31188BFF34F8FBFF3B3
:1026F0006F8FA06BE16B884206D3022F04D00020BD
:1027000086F31188BDE8F08794F945503A4649466A
:102710002046FFF70CF8681C04D06D1C84F8455067
:102720000120EDE7606A0028FAD004F1240000F0EF
:10273000EFF90028F4D0B8F1000FF1D00121C8F86A
:102740000010EDE72DE9F747002683B08A46040024
:1027500003D0BAF1000F08D011E0502080F31188A7
:10276000BFF34F8FBFF36F8FFEE7206C38B150205F
:1027700080F31188BFF34F8FBFF36F8FFEE700F038
:102780000FF9DFF8F4804FF000094FF0805748B997
:10279000059838B1502080F31188BFF34F8FBFF3F5
:1027A0006F8FFEE7FFF772FBA56BC5B15146204660
:1027B000FEF7AAFF6D1EA563206950B104F1100059
:1027C00000F0A6F928B1C8F80070BFF34F8FBFF32F
:1027D0006F8FFFF77BFB012006B0BDE8F0870598FF
:1027E00008B11EB106E0FFF771FB27E06846FFF76E
:1027F0008FFC0126FFF76AFBFFF76AFDFFF746FB38
:1028000094F94400401C01D184F8449094F94500A7
:10281000401C01D184F84590FFF758FB05A9684694
:1028200000F02CF8002820460AD0FFF719FA00F033
:10283000A7F92046FFF7C6F80028B3D00020CBE761
:10284000FFF7C0F890B104F124000599FFF76EFC82
:102850002046FFF705FA00F093F90028A2D1C8F846
:102860000070BFF34F8FBFF36F8F9BE72046FFF7DA
:10287000F7F900F085F995E704ED00E02DE9F04166
:102880000C46050011D0C4B1FFF700FB174B5A6985
:102890006E682068911B471C17D02F689B6A9F4267
:1028A00019D0964217D8012410E0502080F31188E7
:1028B000BFF34F8FBFF36F8FFEE7502080F3118877
:1028C000BFF34F8FBFF36F8FFEE70024FFF7FEFAD1
:1028D0002046BDE8F081884205D9401A206028468C
:1028E000FFF716FCF1E700202060DCE72000002065
:1028F0002DE9FF5F8346DDE90E87994616468A4635
:102900009000FFF7E3F905001CD05C20FFF7DEF92B
:10291000040014D00020256384F85900CDE902405A
:10292000CDE900874B46324651465846FEF7B9FF7F
:102930002046FEF755FE012004B0BDE8F09F284672
:10294000FFF7D8FA4FF0FF30F6E7F0B585B0DDE9D4
:102950000B640A9DA6B1DCB15C27009726630226B2
:1029600084F85960002604AFCDE90246CDE900574E
:10297000FEF797FF2046FEF733FE049805B0F0BD42
:10298000502080F31188BFF34F8FBFF36F8FFEE7A6
:10299000502080F31188BFF34F8FBFF36F8FFEE796
:1029A0000548C16919B1806B18B10020704701203A
:1029B0007047022070470000200000200148406955
:1029C00070470000200000202DE9F0412E4C002728
:1029D000A06B40B1206A401C2062606A00B10127F0
:1029E0003846BDE8F0816669761C666113D160687F
:1029F000006838B1502080F31188BFF34F8FBFF3C8
:102A00006F8FFEE76068A1686160A060A06A401CEB
:102A1000A062FFF7A5F8206BDFF87080864209D32B
:102A20006068006880B16068C068C5686868864290
:102A30000DD220632068C06A00EB800158F82100A5
:102A40000128CAD90127C8E74FF0FF30F1E7281D58
:102A5000FFF7BEF9A86A18B105F11800FFF7B8F939
:102A6000E86AA169884200D9A06100EB800108EB07
:102A70008100291DFFF7FDF9E86A2168C96A8842CB
:102A8000CED30127CCE70000200000201801002051
:102A900070B504004FF0000133D01B4D286884420C
:102AA00007D0502080F31188BFF34F8FBFF36F8F93
:102AB000FEE7206D38B1401E2065E36CE26A9A4261
:102AC0001FD040B11DE0502080F31188BFF34F8F1D
:102AD000BFF36F8FFEE7201DFFF77AF9E06CE0622D
:102AE000C0F13800A061E06AA969884200D9A861F4
:102AF000064900EB800001EB8000211DFFF7B9F9CA
:102B00000121084670BD00002000002018010020AF
:102B100070B5C068C46854B104F118000646FFF7E8
:102B200057F9144DA86B50B13146134815E05020A9
:102B300080F31188BFF34F8FBFF36F8FFEE7201D27
:102B4000FFF746F9E06AA969884200D9A8610B49F4
:102B500000EB800001EB8000211DFFF78AF9E06A9D
:102B60002968C96A884202D90120686270BD0020C4
:102B700070BD000020000020A005002018010020EA
:102B80002DE9F0472C4D00242746A86B38B1FFF7FC
:102B90007DF9A86B401EA863A86B40B146E05020A9
:102BA00080F31188BFF34F8FBFF36F8FFEE7296962
:102BB000224E0120D1B3A6F5916980463068E0B17C
:102BC000F068C46804F11800FFF702F9201DFFF750
:102BD000FFF8E06AA969884200D9A86100EB80018A
:102BE00009EB8100211DFFF744F9E06A2968C96AF1
:102BF0008842E3D3C5F82480E0E70CB1FEF7B0FFCC
:102C00002C6A4CB14FEA0806FFF7DEFE00B16E6297
:102C1000641EF9D100202862686A38B1084901278A
:102C200038070860BFF34F8FBFF36F8FFFF74EF980
:102C30003846BDE8F087000020000020A0050020F5
:102C400004ED00E010B586B0FEF732FD114CA0682F
:102C5000B8B100200390049005AA04A903A8FFF7C7
:102C6000D5F8DDE9032102208DE8070000230AA141
:102C70000B48059AFFF769FEE06010B106B001202D
:102C800010BD502080F31188BFF34F8FBFF36F8FBB
:102C9000FEE700005C000020546D72205376630054
:102CA0003D1C00082DE9FF411E46134602000A9D07
:102CB0004FF0000016D0144CA768002F0FD0CDE9BC
:102CC00000130292062917DAFFF76AFE02284FF076
:102CD00000030FD000226946A068FFF725FC04B06E
:102CE000BDE8F081502080F31188BFF34F8FBFF310
:102CF0006F8FFEE72A46EEE70023324669463846E4
:102D0000FFF7C2FCEBE700005C000020E42D0008A8
:102D100000000000000000000000000000000000B3
:102D2000800000001800000000000000000000000B
:102D3000D42D00080000000000000000000000008A
:102D400000000000800000000800000000000000FB
:102D500000000000E02D000800000000000000005E
:102D600000000000000000008000000008000000DB
:102D70000000000000000000EC2D00080000000032
:102D800000000000000000000000000080000000C3
:102D9000080000000000000000000000020304051D
:102DA000060708090A0B0C0D0E0F10100102030490
:102DB00005060708090A0B0C0D0E0F100000000095
:102DC00000000000010203040607080900000000DB
:102DD00001020304426C696E6B4C45440000000024
:102DE000526564006465665461736B004772656583
:102DF0006E000000142E0008000000209800000063
:102E000012120008AC2E000898000020181D0000C7
:102E10002212000800000000000000000000000076
:102E20000000000001000000100000000000000091
:102E300000127A0000000000000000000000000006
:102E40000000000000000000000000000000000082
:102E50000000000000000000000000000000000072
:102E60000000000000000000000000000000000062
:102E70000000000000000000000000000000000052
:102E80000000000000000000000000000000000042
:102E90000000000000000000000000000000000032
:0C2EA00000000000AAAAAAAA000000007E
:040000050800018965
:00000001FF
